:020000040800F2
:1000000000A00020651A0008211600082316000829
:100010002516000827160008291600080000000011
:100020000000000000000000000000002B16000887
:100030002D160008000000002F16000831160008D9
:10004000B51A0008B51A0008B51A0008B51A000854
:10005000B51A0008B51A0008B51A0008B51A000844
:10006000B51A0008B51A0008B51A000835160008B8
:10007000B51A0008B51A0008B51A0008BD16000820
:10008000B51A0008B51A0008C916000800000000DB
:10009000000000000000000000000000B51A000889
:1000A000D5170008F9170008B51A0008B51A000896
:1000B000B51A00080000000000000000B51A000892
:1000C000B51A0008B51A0008B51A0008B51A0008D4
:1000D000B51A0008B51A0008B51A0008B51A0008C4
:1000E000B51A0008B51A0008000000000000000062
:1000F0000000000000000000000000000000000000
:1001000000000000000000000000000000000000EF
:10011000000000000000000031180008000000008E
:10012000B51A0008B51A0008B51A0008B51A000873
:10013000B51A0008000000000000000000000000E8
:10014000B51A0008B51A00082D190008B51A0008DC
:10015000B51A0008B51A0008B51A0008B51A000843
:10016000B51A0008B51A00080000000000000000E1
:1001700000000000B51A00080000000000000000A8
:0C018000B51A0008B51A0008B51A0008EE
:10018C0010B5054C237833B9044B13B10448AFF3C5
:10019C0000800123237010BD3400002000000000FB
:1001AC003C52000808B5034B1BB103490348AFF39D
:1001BC00008008BD00000000380000203C52000800
:1001CC0053B94AB9002908BF00281CBF4FF0FF31B2
:1001DC004FF0FF3000F06EB9ADF1080C6DE904CEB4
:1001EC0000F006F8DDF804E0DDE9022304B0704706
:1001FC002DE9F047089D04468C46002B40F0838087
:10020C008A42174647D9B2FA82F242B1C2F12000B3
:10021C0024FA00F09140974040EA010C94404FEAD8
:10022C001748230CBCFBF8F61FFA87FE08FB16C117
:10023C0043EA014306FB0EF1994209D9FB1806F17A
:10024C00FF3080F01981994240F21681023E3B4406
:10025C005B1AA4B2B3FBF8F008FB103344EA034476
:10026C0000FB0EFEA64509D93C1900F1FF3380F0C6
:10027C000581A64540F2028102383C4440EA064022
:10028C00A4EB0E0400261DB1D4400023C5E90043A5
:10029C003146BDE8F08702B9FFDEB2FA82F2002ADD
:1002AC0050D1CB1B4FEA174E1FFA87F80126B3FB30
:1002BC00FEFC210C0EFB1C3341EA034108FB0CF342
:1002CC008B4207D979180CF1FF3002D28B4200F225
:1002DC00E9808446C91AA3B2B1FBFEF00EFB1011E3
:1002EC0043EA014408FB00F8A04507D93C1900F18A
:1002FC00FF3302D2A04500F2D9801846A4EB0804C3
:10030C0040EA0C40BFE78B4209D9002D00F0B180C8
:10031C000026C5E9000130463146BDE8F087B3FA46
:10032C0083F6002E4AD18B4202D3824200F2B8806F
:10033C00841A61EB030101208C46002DA8D0C5E97D
:10034C00004CA5E7C2F1200320FA03F6974001FA0E
:10035C0002F04FEA174ED9403043030CB1FBFEF6C6
:10036C001FFA87F80EFB161143EA014306FB08F14E
:10037C00994204FA02F409D9FB1806F1FF3C80F00B
:10038C008D80994240F28A80023E3B445B1A81B2D6
:10039C00B3FBFEF00EFB103341EA034100FB08F304
:1003AC008B4207D9791800F1FF3C73D28B4271D97B
:1003BC0002383944CB1A40EA064678E7C6F1200CDD
:1003CC0003FA06F422FA0CF31C4320FA0CF701FA98
:1003DC0006F34FEA144E21FA0CF11F433B0CB1FB10
:1003EC00FEF91FFA84F80EFB191143EA014109FBCF
:1003FC0008FA8A4502FA06F200FA06F308D96118DF
:10040C0009F1FF3048D28A4546D9A9F102092144A5
:10041C00A1EB0A01BFB2B1FBFEF00EFB101147EAD3
:10042C00014700FB08F8B84507D9E71900F1FF317F
:10043C002ED2B8452CD90238274440EA0940A7EB04
:10044C000807A0FB02894F45C64649461AD317D068
:10045C005DB1B3EB0E0267EB010707FA0CFCF2403F
:10046C004CEA0202F740C5E9002700263146BDE8F8
:10047C00F0872E4628460BE70646E9E61846FDE6C9
:10048C004345E5D2B8EB020E69EB04010138DFE716
:10049C000846D2E760468DE78146B9E7664675E7C0
:1004AC0030464AE7ACF1020C394413E702383C44BD
:1004BC0024E700BF704700BF10B5164C082120463A
:1004CC0004F036FA0C21204604F032FAC82001F070
:1004DC0035FB0821204604F09BFA0C21204604F041
:1004EC0097FAC82001F02AFB0821204604F020FAD4
:1004FC000C21204604F01CFAC82001F01FFB082137
:10050C00204604F085FA20460C21BDE8104004F08A
:10051C007FBA00BFAC4D0020524BF0B51A6841F2C7
:10052C0034239A4287B01FD1012852D10023CDE940
:10053C0001331F2201234C4CCDE90423237002F01C
:10054C00F3FB20700028FAD101A902A802F0D6FC16
:10055C00A8B10123237002F0F9FB20700028FAD116
:10056C00FFF7AAFF07B0F0BD0028DFD13F4B188082
:10057C003F4B18803F4B18803F4B1880D6E73B4BC6
:10058C00384E1D883A4B1888012345EA00452370E4
:10059C0041F234222B463146002002F00DFC207033
:1005AC000028F5D1344B354F1A88324B1D8845EA5B
:1005BC000245334A1668E91701230E4323702A4675
:1005CC0033463946002002F0F7FB20700028F6D1A4
:1005DC00BFE72C4B254A1B88294C9BB213802A4A17
:1005EC00C3F301231370294B1888214B80B2188058
:1005FC00224B19881F4B89B21980254B1A881E4B28
:10060C0092B21A80234B1B68236007EE903AF5EEEA
:10061C00C07AF1EE10FAA5DD9FED1F7A1F4B67EE45
:10062C00877A07EE100AB8EE477AC7EE876A07EEAC
:10063C00101AFCEEE66AB8EE477AC3ED006AC7EE14
:10064C00876A174B07EE102AFCEEE66AB8EE477A7B
:10065C00C3ED006AC7EE876A124BFCEEE66AC3ED87
:10066C00006A7FE700F80008684E0020004E00206A
:10067C00064E0020044E00202642002008F80008F8
:10068C006400002004F800084401002006F800086B
:10069C000AF800080CF8000800007A44500000200A
:1006AC00540000205800002030B5A5B04422002191
:1006BC0013A804F0B5FD1422002101A804F0B0FD2C
:1006CC003422002106A804F0ABFD4FF4007003F0B7
:1006DC0017F8182300240125139313A87023CDE9D0
:1006EC001B4318951A951E9403F0D0F80F23CDE9EF
:1006FC0001342146B02301A8CDE90334059403F05D
:10070C0097FB44F20143CDE9063506A84FF480135C
:10071C000F9303F045FC25B030BD00002DE9F04FE0
:10072C00CE4DDFF87493DFF874B393B001F0E4F9B5
:10073C00FFF7BAFF142200210BA804F071FDEB6C3B
:10074C0043F00103EB64EB6C03F001030293029B97
:10075C00EB6C43F00203EB64EB6C03F002030393CA
:10076C00002241F242114FF09040039B02F06AFDCF
:10077C000022BB481821002402F064FD012641F23E
:10078C0002130BA94FF09040CDE90B36CDE90D4487
:10079C0002F022FC4FF0400E11230BA94FF09040B9
:1007AC00CDE90BE3CDE90D4402F016FCAD4B0D94F5
:1007BC000BA94FF090404FF40068CDE90B8302F089
:1007CC000BFC4FF400430BA94FF09040CDE90B34D8
:1007DC0018270D9402F000FCA1480BA9CDE90B766B
:1007EC00CDE90D4402F0F8FBAB6C3343AB64AB6C5E
:1007FC009D4D33402246214601930B20019B02F074
:10080C00C3F80B2002F0F2F8224621460F2002F02A
:10081C00BBF80F2002F0EAF83A4621460BA8CDE9C6
:10082C000744099404F0FCFC904B2E83C5E900347A
:10083C000823C5E90234042702232846EB61C5E9E5
:10084C000A442E616F6185F8204085F830406C6356
:10085C0085F8384001F09CF907A92846079402F066
:10086C001FF80623CDE90B930BA97F234FF0030A46
:10087C002846CDE90DA3CDE90F7601F0D1FB0C2371
:10088C000BA92846CDE90BB3109401F0C9FB7F21CD
:10089C00284601F0B5FF04460028F8D17448754A83
:1008AC0004614FF4E133C0E900230C232025C0E997
:1008BC0005344FF40053C3634562C0E90244C0E9F8
:1008CC00074404F0F8FB102221460BA804F0A8FC06
:1008DC00694E6A4B0994C6E900346423C6E90334B3
:1008EC0030468023B361CDE90744B460746103F0F2
:1008FC0079FE4FF480530BA930460B9303F076FF2F
:10090C000821304603F0CEFE07A93046079509941E
:10091C0004F0CCF8182221460BA804F081FC584DA9
:10092C00584B2C610127C5E9003404234FF4B06106
:10093C006B612F834FF480632846C5E90A13C5E920
:10094C000244EF6185F8204085F830406C6385F8EF
:10095C00384001F01DF94C480623CDE90B034FF04C
:10096C00004C7F230BA92846CDE90DC3CDE90F47D9
:10097C0001F056FBB0467F21284601F041FF0446AA
:10098C000028F8D10146102207A8404DDFF810913D
:10099C00DFF810A104F044FC1C2221460BA8CDE981
:1009AC000444069404F03CFC4FF080438026C5E9D7
:1009BC00003428463823C5E90334AE61AC6003F03B
:1009CC0011FE4FF4805307A92846079303F00EFF3E
:1009DC00284603F037FE202304A928464FF0020BCB
:1009EC000493069404F062F80BA930230C222846D9
:1009FC00CDE90B34CDF834B00F9403F0B9FE2A686E
:100A0C00D36943F40063D361284600F073FD204B97
:100A1C00C9F80840C9E90034484647F23053C9E9DF
:100A2C000334C9E9054603F0DDFD0821484603F00F
:100A3C0039FE184BCAF81860CAE9003B504644F618
:100A4C002063CAF80C30CDE90B440D94CAF8084069
:100A5C0003F0C8FD0BA9504626E000BF0010024071
:100A6C000004004800001110404200200000045017
:100A7C002843002000380140D841002000400140AC
:100A8C00744100200001045000002143AC4D0020B3
:100A9C00004401400010004000106032000052C7BA
:100AAC00084E0020544D0020CA4E0B940D9403F0B8
:100ABC00FDFFC94BB460C6E900344FF6FF73736198
:100ACC0030464FF48003C6E90934C6E90B4434625E
:100ADC00746302F019FD304602F0DAFDBF4B9FED56
:100AEC00C07A1A889B78ADF810208DF81230BD4A68
:100AFC00BD4B11881B88BD4E5B1A07EE903AF8EE81
:100B0C00E77ABB4BC7EE276AB3EE0E7AC3ED006AE9
:100B1C0013889BB207EE903AF8EE677AB54BA6EEC7
:100B2C00E77A83ED007A01F003F8B34B3460021ED0
:100B3C001860B24B18BF01221A70B14B0746204601
:100B4C001C60FFF7E9FCAF480122082102F07AFB98
:100B5C00012240214FF0904002F074FBD8F8003095
:100B6C00A9486FF00108C3F8108003F007FC0821B6
:100B7C00284603F0DDFE0C21284603F0D9FE0122A5
:100B8C0059464FF0904002F05DFBD9F800304846D2
:100B9C00C3F8108003F0F2FB9C4B1C809C4B50461E
:100BAC001C8003F0EBFB9B4B1B78A3B100F0C0FF48
:100BBC00C01BB0F5FA6F0ED9964A974800231370F4
:100BCC0001F088FC00F0B4FF8B4B4FF4FA41186035
:100BDC00804802F00BFD4FF400414FF0904002F0C2
:100BEC002BFB012840F02A838C4C23784BB18C488A
:100BFC0004F061FA8A4814220BA904F0C7FA002306
:100C0C002370884B93F82530012B4FD18448142244
:100C1C000BA904F0BBFA9DF82C303C2B46D19DF867
:100C2C002E303E2B42D100220BA9134611F8010B9A
:100C3C0001320344122A9BB2F8D19DF83E10DAB26D
:100C4C00914233D19DF83F20B2EB132F2ED19DF85A
:100C5C002D30312B40F05481734B744D744C93F800
:100C6C0000E07448D5F800C02168002300EB4E006A
:100C7C001A46994640F60208BEF1010F08BF002142
:100C8C0020F8229002F1010204BF73468C464245C3
:100C9C00F2D10022326013B1C5F800C0216000F01F
:100CAC0047FF554B1860644B00221A60634B1B784E
:100CBC00002B40F085815C4D5E4C2B78AB46002BB5
:100CCC0040F07B824223DFF830918DF8113000F038
:100CDC002FFF2A78D9F800304FF47A78C01AB0FB7D
:100CEC00F8F024F8120000F023FF2B78D9F800104C
:100CFC009A1C401AB0FBF8F0000C24F812004E4A73
:100D0C0012684748DFF83881DFF814A1191D063343
:100D1C0024F81120120C24F8132004A94FF47A7330
:100D2C00032204F03BF900251420A8F8005000F031
:100D3C0005FFA9469BF8003003EB45030DF10301B9
:100D4C0034F813308DF802301A0A8DF8032052FA59
:100D5C0083F3B8F800201344A8F8003001224FF4B4
:100D6C007A73504604F01AF94FF47A7301220DF19C
:100D7C000201504604F012F9B9F1080F00F3588241
:100D8C0009F10109013540F212439D42D2D11420E0
:100D9C0000F0D4FE2A4B22481B888DF802301B0A27
:100DAC008DF8033001224FF47A730DF1030104F036
:100DBC00F5F84FF47A7301220DF10201184804F092
:100DCC00EDF800F0B5FE1F4B18600C4B01221A70A9
:100DDC003AE000BFEC420020009400406952000849
:100DEC000000C842A875FF1FCA75FF1FA84D002040
:100DFC00FC4D00206C410020A04D00200400002080
:100E0C006C00002000040048D8410020244200203F
:100E1C00F84D00200000002074410020010000204B
:100E2C0028430020A442002045010020700000202F
:100E3C0060000020460100206800002074000020A3
:100E4C00024E00203C42002000F072FE336844F653
:100E5C002062C01A904201D8002B4CD100224021B4
:100E6C004FF0904002F0EEF9DA49DB48DB4D0222FC
:100E7C0001F0D6FB00F05CFED94B1860D94B4FF457
:100E8C0080621A804FF4805101224FF0904002F0A2
:100E9C00D9F9D2480122102102F0D4F9CF4800220E
:100EAC00102102F0CFF900224FF480514FF0904006
:100EBC0002F0C8F90F244FF42442224112F001022F
:100ECC0018BF01224FF480714FF0904002F0BAF934
:100EDC0001221021284602F0B5F9002210212846E3
:100EEC0002F0B0F9013CE6D201224FF480514FF0F0
:100EFC00904002F0A7F94FF4FA7000F01FFE52E692
:100F0C00322B57D19DF830209DF82F309DF83100B1
:100F1C009DF83310B44C43EA0223B44A1380B44A0C
:100F2C00C3F3012313709DF832309DF8352040EA4D
:100F3C000320B04B18809DF8343041EA0321AE4BAE
:100F4C0019809DF8363042EA0322AC4B1A80DDF84A
:100F5C003730236007EE903AF5EEC07AF1EE10FAD6
:100F6C0024DD9FEDA77AA74B67EE877A07EE100A70
:100F7C00B8EE477AC7EE876A07EE101AFCEEE66AFF
:100F8C00B8EE477AC3ED006AC7EE876A9E4B07EE50
:100F9C00102AFCEEE66AB8EE477AC3ED006AC7EE9B
:100FAC00876A9A4BFCEEE66AC3ED006A0120FFF7F4
:100FBC00B3FA7BE6332B40F0F480954B01221A7088
:100FCC0000F0B6FD924ADFF860B2924CDFF85CA2FA
:100FDC00002515704C224FF47A738DF81120B0FB5C
:100FEC00F3F8032204A98C4807958DF8205003F0E0
:100FFC00D5FF4FF47A7301225946874803F0CEFF90
:10100C009BF800205FFA88F0C8F3072102440A44D9
:10101C008DF802008DF8031022804FF47A730122B0
:10102C000DF103017C4803F0B9FF4FF47A730122F0
:10103C000DF10201784803F0B1FF20888DF80350C0
:10104C004FEA18488DF802804FF47A7380440122DD
:10105C000DF103017048A4F8008003F09FFF4FF4DA
:10106C007A7301220DF102016B48DFF8AC8103F0B9
:10107C0095FF4FF47A73052207A9674803F08EFF9A
:10108C00142000F05BFD9BF80030AB420AF10C0918
:10109C007FF77DAE59F80C2C2188D3B28DF8023035
:1010AC00C2F307220B4413448DF803202380012242
:1010BC004FF47A730DF10301404603F06FFF4FF4C8
:1010CC007A7301220DF10201404603F067FF59F8D3
:1010DC000C3C2188C3F307421B0E8DF803300B44E4
:1010EC0013448DF80220238001224FF47A730DF102
:1010FC000301404603F052FF4FF47A7301220DF1C5
:10110C000201404603F04AFF228819F8083C1344B8
:10111C000AF10401238001224FF47A73404603F054
:10112C003DFF59F8042C2188D3B28DF80230C2F35C
:10113C0007220B4413448DF80320238001224FF423
:10114C007A730DF10301404603F028FF4FF47A73D4
:10115C0001220DF10201404603F020FF59F8043C36
:10116C002188C3F307421B0E8DF803300B44134444
:10117C008DF80220238001224FF47A730DF10301C4
:10118C00404603F00BFF4FF47A7301220DF102017C
:10119C00404603F003FF142000F0D0FC0135CA4692
:1011AC0071E7342B03D11D4B01221A707EE5352BD0
:1011BC007FF47CAD194B0022F7E762228DF81120E9
:1011CC00174A126824F81320991C120C24F81120C9
:1011DC00144A95E564410020404200200004004878
:1011EC00A84D00206841002064000020004E002023
:1011FC0044010020064E0020044E00202642002010
:10120C0000007A44500000205400002058000020B8
:10121C0074000020024E00202843002045010020CD
:10122C00600000207000002076000020AC430020FD
:10123C00142000F083FC4FF00009A3E5164C237832
:10124C00002B3FF401AE00F073FC144B1B68C01A6A
:10125C00B0F57A7F7FF6F8AD00231149237009228F
:10126C004FF47A730F4803F099FEC82000F066FC27
:10127C004FF47A730C490B480A2203F08FFE0122BB
:10128C0008210A4801F0DEFF094803F077F8054809
:10129C0003F057FC074B99E5040000203C4200206A
:1012AC0054520008284300205E52000800040048F5
:1012BC00D841002001000020704700000A4B1A6E34
:1012CC0042F001021A661A6E82B002F0010200921C
:1012DC00009A9A6D42F080529A659B6D03F0805390
:1012EC000193019B02B0704700100240F0B514222C
:1012FC008BB0064600210DEB020003F091FF336822
:10130C00374A934244D1374A13680133012B136097
:10131C00354B08D1DA6C42F40052DA64DA6C02F420
:10132C0000520192019ADA6C304C42F00102DA64FC
:10133C00DB6C03F0010302930025029B07950B2342
:10134C00802705A94FF09040CDE9057301F044FECC
:10135C00274B2761C4E900354FF480714FF480634B
:10136C002046C4E90255C4E90513C4E9075501F048
:10137C0061FB08B1FFF7A0FFF464A6620022122003
:10138C00114601F001FB122001F030FB0BB0F0BD57
:10139C00184A9342FAD1134A13680133012B136094
:1013AC00114B08D1DA6C42F40052DA64DA6C02F4B4
:1013BC0000520392039ADA6C0F4842F00202DA648C
:1013CC00DB6C03F0020304930222049B00240B2326
:1013DC0005A9CDE90523079401F0FEFD2246CEE7D1
:1013EC000000045060410020001002400C4D002011
:1013FC0008000240000104500004004807B50E4BE1
:10140C0002689A4215D103F5BE334220DA6D42F0E0
:10141C002002DA65DB6D002203F0200301931146F4
:10142C00019B01F0B1FA422003B05DF804EB01F02E
:10143C00DDBA03B05DF804FB009400401FB50368EF
:10144C00B3F1804F0DD103F504339A6D42F00102D4
:10145C009A659B6D03F001030093009B05B05DF84A
:10146C0004FB204A934214D11F4B9A6D42F0100298
:10147C009A659B6D002203F01003019336201146F0
:10148C00019B01F081FA362005B05DF804EB01F008
:10149C00ADBA164A934210D1134B1A6E42F48032F5
:1014AC001A661B6E002203F4803302931820114637
:1014BC00029B01F069FA1820E6E70D4A9342CDD160
:1014CC00094B1A6E42F400321A661B6E002203F4AA
:1014DC000033039319201146039B01F055FA192090
:1014EC00D2E700BF00100040001002400040014055
:1014FC000044014010B5044686B01422002101A816
:10150C0003F08EFE2368B3F1804F18D103F504333A
:10151C0001A9DA6C42F00102DA64DB6C03F001031E
:10152C000093009B08220223CDE901230023CDE97F
:10153C0003334FF090400123059301F04DFD06B0AD
:10154C0010BD0000F0B5064689B01422002103A896
:10155C0003F066FE32681E4B9A4237D103F55843AE
:10156C0002271A6E1B4C42F480421A661A6E02F461
:10157C0080420192019ADA6C42F00102DA64DB6C6F
:10158C0003F001030293029B4FF4C0630025CDE9E5
:10159C0003370323CDE905534FF09040072303A9EC
:1015AC00079301F019FD0C4B2562C4E90037204666
:1015BC008023C4E90255C4E90435C4E9065501F099
:1015CC0039FA08B1FFF778FE3467A66209B0F0BDAE
:1015DC0000380140A44200205800024002680B4B26
:1015EC009A4210B504460FD1094A136E23F4804376
:1015FC004FF0904013664FF4C06101F0A9FD206FCD
:10160C00BDE8104001F080BA10BD00BF00380140A9
:10161C00001002407047FEE7FEE7FEE7FEE770476A
:10162C007047704700F078BA08B51B4801F0A6F86F
:10163C00402101224FF0904001F004FE174B184856
:10164C001A885B8807EE103A164BB8EE477AD3ED42
:10165C00007A154B27EE277AD3ED007AF1EE006A6B
:10166C00E7EE267AB2F5447F84BF6FF444715218CA
:10167C00FCEEE77A88BF92B217EE903A98BF002240
:10168C0099B2D3B243EA0123084A9BB21382538224
:10169C00BDE8084001F0E8BA404200206441002057
:1016AC000C4D0020FC4D00206C4100204601002018
:1016BC00014801F0D9BA00BFA442002033480368A6
:1016CC001B685A0770B505D500F038FB80B230495D
:1016DC0040B908802F4800F03DFBBDE870402B4816
:1016EC0000F038BB2C4B1B78C0F30B00012B08808F
:1016FC0048D1800808800B8806339AB2274B0A80A1
:10170C0033F822104FF6FF7081421CBF013123F8D1
:10171C0022102349098861B103EB82034FF6FF7154
:10172C005A888A421CBF01325A801E4A1368013300
:10173C0013601D4A1368013313601C4A136801338C
:10174C00136000F0F5F91A4B196869B1194C1A4E6F
:10175C0025786A1CD2B2312AA0EB0101227046F81E
:10176C00251084BF002222701860144B1B885B0666
:10177C00B0D513480122082101F064FD114802F094
:10178C00FDFDA7E7022BB6D14008B3E7744100205A
:10179C005C00002040420020440100204601002053
:1017AC0024420020700000206C0000206800002003
:1017BC0078000020A44D00207C000020004E00206A
:1017CC0000040048D841002008B506480022082132
:1017DC0001F038FD044802F01AFEBDE8084002484A
:1017EC0002F0F6BD00040048D841002010B50B4CA7
:1017FC000821204603F00CF90C21204603F008F9CF
:10180C00002202214FF0904001F01CFD044802F030
:10181C00FEFDBDE81040024802F0DABDAC4D0020E0
:10182C00084E002010B5384C384802F0F0FD2388E3
:10183C0098060AD0364A1288032A06D8DFE802F046
:10184C0002062D48334B00221A8010BD31490888FE
:10185C00421E92B20A8010B904230B80F5E7022ACB
:10186C00F3D9D9070AD508212B4803F061F82A4887
:10187C000C2103F05DF8294802F080FD238813F059
:10188C00020FE2D04FF090400122022101F0DAFC6D
:10189C00BDE81040214802F071BD1E490888421E67
:1018AC0092B20A8008B90523D7E7022ACDD95A0784
:1018BC000AD50821184803F03BF817480C2103F00F
:1018CC0037F8164802F05AFD238813F0080FD8E7B2
:1018DC0010490888421E92B20A8008B90623BCE758
:1018EC00022AB2D9DB060AD508210B4803F020F8EE
:1018FC0009480C2103F01CF8084802F03FFD23882E
:10190C0013F0200FBDE700BF004E0020544D002007
:10191C0024420020F84D0020AC4D0020084E002041
:10192C00F8B52F482F4C304D01F0B3FC0023236049
:10193C00194618461A4655F8046B16B10132314453
:10194C00012301303228F6D103B12160274D6AB151
:10195C002368B3FBF2F3264A2360126893422FD21A
:10196C000323244A2B80136801331360224E2B88E7
:10197C0032889A4223D000F0DBF8204ADFF88CC082
:10198C0013780C21C62B01FB03F19ABF0133DBB298
:10199C00002313701A4A13780133DBB20CEB0107E6
:1019AC00C82B4FF47A7E88BFC823B0FBFEF04CF8EE
:1019BC000100298820683971B86013703180F8BD36
:1019CC00104A1268934201D20223CAE70E4A1268E7
:1019DC00934201D20123C4E700232B80C6E700BF4A
:1019EC00EC420020704100207C00002024420020AA
:1019FC00580000206000002002000020750000202C
:101A0C00760000205400002050000020AC43002041
:101A1C000F49D1F8883043F47003C1F888300D4B6E
:101A2C001A68002042F001021A6098601A6822F0CD
:101A3C00A85222F410221A604FF48052DA601A680D
:101A4C0022F480221A6098614FF000638B6070471B
:101A5C0000ED00E000100240DFF834D0FFF7D8FFB3
:101A6C00002103E00B4B5B58435004310A480B4BED
:101A7C0042189A42F6D30A4A02E0002342F8043B89
:101A8C00084B9A42F9D303F0A7FBFEF747FEFEE79B
:101A9C0000A00020D85200080000002034000020D4
:101AAC0034000020704E0020FEE7000038B50F4BCC
:101ABC000546187808B9012038BD0D4A4FF47A73E1
:101ACC00B3FBF0F31068B0FBF3F000F09DFF04469D
:101ADC000028F0D10F2DEED8024629464FF0FF30EA
:101AEC0000F052FF034B20461D60E5E70C00002080
:101AFC00080000201000002010B5032000F032FF79
:101B0C000020FFF7D3FF044618B9FFF7D7FB204698
:101B1C0010BD0124FBE70000034A044B11681B783D
:101B2C000B441360704700BF6C4E00200C0000206B
:101B3C00014B1868704700BF6C4E002038B5044646
:101B4C00FFF7F6FF631C1CBF054B1B78054618BF3F
:101B5C00E418FFF7EDFF431BA342FAD338BD00BFD7
:101B6C000C00002030B5CC0D04F004041430C1F38B
:101B7C000451235807258D4023EA050302FA01F18D
:101B8C000B43235030BD8068C0F3800070470000C9
:101B9C0037B5002301930446002800F0C380456D3F
:101BAC0025B9FFF7A3FBA56584F85050206883681E
:101BBC009B0041BF836823F0204323F03F038360E5
:101BCC008368DD0040F18E808368D90000F1A1802C
:101BDC00636D43F010036365A36D43F00103A365CC
:101BEC000121FFF7D0FF636D03F010030343636D16
:101BFC0040F0958023F4817343F002032068636501
:101C0C008368DA070ED4484B9A6803F580739B6897
:101C1C001343DB0706D4454A6568936823F47C13A9
:101C2C002B439360E568636B94F820202B43A568E5
:101C3C002B43657E012A43EA453343EA024302BF44
:101C4C00626A02F1FF3243EA4243A26A22B1E56AB8
:101C5C0002F470722A431343C568354A2A40134371
:101C6C00C360FFF790FF23689A6802F008020243F2
:101C7C0020D1D86894F83020257E520020F4804082
:101C8C0042EA853220F002000243DA6094F83820F0
:101C9C00012A40D1D4E90F25186920F4FF6020F007
:101CAC0004002A430243606C0243A06C024342F0DE
:101CBC0001021A612269012A05BF186BE2691A6BCD
:101CCC0002F1FF3206BF20F00F00024322F00F0298
:101CDC001A63636D23F0030343F001036365084645
:101CEC0003B030BD8368134A23F0104323F03F0345
:101CFC0043F080538360104B1B68B3FBF2F301334A
:101D0C005B000193019B002B3FF45EAF019B013BF9
:101D1C00F7E7002165E71A6922F00102C9E743F0F1
:101D2C00100363650121DAE700000450000304503E
:101D3C0007C0F0FF400D0300080000200368186C7A
:101D4C0070477047704708B5806AFFF7FBFF08BD06
:101D5C007047704703682DE9F0411D685E688C4B35
:101D6C009F6815F0020F044607F01F0798460ED027
:101D7C00B0070CD5636DD9065EBF636D43F4006389
:101D8C006365204600F08AFD236802221A606A0708
:101D9C0001D5730703D4280732D5310730D5636DCD
:101DAC002068DA065EBF636D43F400736365C36835
:101DBC0013F4406F1ED1774B984200F0DB80C36860
:101DCC009B0417D40368190714D5FFF7DCFE002811
:101DDC0040F0B1802268536823F00C035360636DAC
:101DEC0023F480736365636DDA0403D4636D43F08D
:101DFC00010363652046FFF7A4FF23680C221A60D9
:101E0C00AB0601D5B00603D4690638D5720636D5B3
:101E1C00636D604ADB065EBF636D43F4005363651C
:101E2C002368D86CD968934200F0C00004D11FB16C
:101E3C00BA1F012A00F28880DA68D0B9900105D562
:101E4C0002F4005001F44061014312D119684806B4
:101E5C000FD591020DD49A68120778D45A6822F0E3
:101E6C0060025A60636D23F480536365636DD8051B
:101E7C0076D5204600F00EFD236860221A602906F4
:101E8C000BD5320609D5636D43F480336365204668
:101E9C00FFF75EFF236880221A60EB050CD5F00576
:101EAC000AD5636D43F400336365204600F0F4FCFF
:101EBC0023684FF480721A60A9050CD5B2050AD5B7
:101ECC00636D43F480236365204600F0E6FC2368D1
:101EDC004FF400721A60EB0618D5F00616D5636B3A
:101EEC0033B1002F41D0D8F8083013F4604F0AD02A
:101EFC00636D43F480636365A36D43F00203A365D4
:101F0C002046FFF726FF236810221A6069053CD58E
:101F1C0072053AD5636D43F480436365A36D43F05A
:101F2C000803A36523684FF4806220461A60BDE85D
:101F3C00F04100F0B0BC636D43F010036365A36D1A
:101F4C0043F00103A36555E7134AD26875E7636D47
:101F5C0043F010036365A36D43F00103A36588E7A9
:101F6C00636D43F00103636583E72368DB6813F05B
:101F7C00010FBCE7092F05D840F22123FB40DB07FA
:101F8C003FF51DAF044BDB681AE7BDE8F08100BFDD
:101F9C00000304500001045000000450836A5A6D81
:101FAC0012F0500F10B55A6D21D142F400725A65DF
:101FBC001A681168080716D5D16811F4406F0ED154
:101FCC00D26812F4005F0AD15A6D22F480725A65FD
:101FDC005A6DD1045EBF5A6D42F001025A65184623
:101FEC00FFF7AFFE10BDD26812F0020FEBE7D2067E
:101FFC0003D51846FFF7ADFEF4E7DB6CBDE81040E7
:10200C005B6B1847806A08B5436D43F0400343652A
:10201C00836D43F004038365FFF79BFE08BD00004E
:10202C00F7B50023019390F85030012B05460C4670
:10203C0000F09681012380F850300068FFF7A3FD73
:10204C00002840F087814B68052B09D8023B032BF5
:10205C0000F28C80DFE803F0028385870C23636039
:10206C00626828682368910901F00C0100F13007BF
:10207C0002F01F02CE594FF01F0CC3F38463934040
:10208C000CFA02F226EA02021343CB51FFF77BFD56
:10209C0002462868836803F008031A4324D1A36816
:1020AC002168B3F1004F63D1FFF75CFD2A685369D7
:1020BC0043F000435361266928682268C168042EE6
:1020CC0000F160035CD0C1F3C1014800616953F8B1
:1020DC0026708140A34802F0F84238401043014377
:1020EC0041F0004143F8261028688368D90700F1B5
:1020FC00C480E66823689C4AD0F8B01006F0180C2F
:10210C00C3F3120722FA0CF21A4021EA07010A4320
:10211C00C0F8B020954A964240F0AF80002F40F0B6
:10212C008480990E013101F01F06890601F0F842F6
:10213C00092E4FF0010101FA06F140F29180114392
:10214C00002F40F0BB809A0E013202F01F0202EB0E
:10215C0042031E3B1B0543F0007319438AE0122314
:10216C007DE718237BE74FF4807378E7062376E747
:10217C001A46FFF7F7FC2A68536923F0004399E7E6
:10218C00016E016EC2F31206C1F38461002E38D1C8
:10219C00C2F38462914202BF026E22F000420266D8
:1021AC005A6822685968C2F31200C1F3846168BB93
:1021BC00C2F38462914202BF5A6822F000425A6014
:1021CC009A6822689968C2F31200C1F3846110BB4B
:1021DC00C2F38462914202BF9A6822F000429A6074
:1021EC00DA682268D968C2F31200C1F38461B8B905
:1021FC00C2F38462914202BFDA6822F00042DA60D4
:10220C0072E792FAA2F2B2FA82F2C3E792FAA2F25F
:10221C00B2FA82F2CEE792FAA2F2B2FA82F2D9E7DD
:10222C0092FAA2F2B2FA82F2E4E793FAA3F232B192
:10223C00B2FA82F2013202F01F02092A2CD893FA68
:10224C00A3F1B1FA81F10131890601F0F84293FA58
:10225C00A3F1B1FA81F1013101F01F060121B14066
:10226C001143A7B99E0E013606F01F0606EB460673
:10227C0036053143A268FFF775FC21683C4B1942C7
:10228C0021D10020002385F8503003B0F0BD93FA23
:10229C00A3F6B6FA86F6E6E793FAA3F1B1FA81F162
:1022AC000131890601F0F84293FAA3F1B1FA81F1F8
:1022BC00013101F01F060121B14040E793FAA3F26E
:1022CC00B2FA82F240E72B4B2B4A9868914200F00D
:1022DC00E0741BD10202D4D42968284A9142D0D18F
:1022EC009A6822F0E072224342F400029A60244B76
:1022FC00244A1B68B3FBF2F20C2302FB0333019359
:10230C00019B002BBDD0019B013BF8E71E4A91427B
:10231C000FD110F08070B4D12968A2F1F74291422C
:10232C00AFD19A6822F0E072224342F080729A6038
:10233C00A8E7164A9142A4D110F48000A1D12968D3
:10234C000E4A91429DD19A6822F0E072224342F4E7
:10235C008002ECE76A6D42F020026A65184691E74C
:10236C00022092E700F0FF03FFFF070000007F4010
:10237C000000088000030450000052C70000045005
:10238C0008000020400D0300000084CB01000080F9
:10239C0070B504460068FFF7F6FB23689A6802F0F4
:1023AC000802024301D1002070BDDA6890012BD5E0
:1023BC00208B40F20112904226D1284A1968490616
:1023CC0016D540221A6001211846FFF7DCFB58B1E4
:1023DC00226893689E0707D4936823F0004323F088
:1023EC003F0343F01003936001290FD1042522E031
:1023FC00013AE3D1636D43F010036365A36D43F0C1
:10240C000103A3650120CFE70229DDD1226893687F
:10241C0018070AD593689B0707D4936823F00043E9
:10242C0023F03F0343F020039360022914D00329C7
:10243C0014BF04250C25FFF77BFB064623689B681D
:10244C002B42B0D0FFF774FB801B0528F6D923680C
:10245C009B682B42F2D0CDE70825ECE7010040A3A6
:10246C000268936870B50446D80701D5002070BD8A
:10247C009168164B194209D0636D43F010036365E4
:10248C00A36D43F00103A3650120F0E79368104DA1
:10249C002B4043F001039360FFF74AFB064622688A
:1024AC001368DB07E2D49368D9075FBF93682B40AE
:1024BC0043F001039360FFF73BFB831B022BEED928
:1024CC0023681B68DA07EAD4D6E700BF3F00008018
:1024DC00C0FFFF7F4F4B70B5044600689E68FFF746
:1024EC0052FB0546002840F08F8094F85030012BA9
:1024FC0000F08A80012384F850302046FFF7B0FFAB
:10250C0000287ED1636D444923F4706323F00103EA
:10251C0043F48073636523688B4206F01F0275D009
:10252C001946656D25F480156565656D15F4805546
:10253C001CBFA56D25F00605A5651C251D60002595
:10254C0084F850505D6825F01C055D6065695E6817
:10255C00082D0CBF46F0080646F004065E60666B5C
:10256C001EB95E6846F010065E608B4207D0092AE1
:10257C0028D840F2212626FA02F2D60722D5DA68AC
:10258C00910116D5626D22F4405242F4805262657C
:10259C005A68082D0BBF22F0200222F040025A602C
:1025AC005A600BBF5A685A6842F0400242F020024F
:1025BC005A609A6822F0004222F03F0242F0040274
:1025CC009A6070BD626D42F480126265CA689201B5
:1025DC00F7D5626D22F4405242F4805262655A681B
:1025EC00082D0BBF22F0200222F040025A605A60E4
:1025FC000BBF5A685A6842F0400242F020025A60FF
:10260C00DFE784F85050DCE70220DAE70349002AC0
:10261C0087D08AE7000304500001045000000450E6
:10262C00374B2DE9F041044600689B680E4617466F
:10263C00FFF7A9FA00285DD194F85020012A59D04F
:10264C0003F01F08B8F1090F4FF0010384F8503064
:10265C004BD840F2212020FA08F0C04310EA0305C1
:10266C0043D12046FFF7FCFE00283BD1636D216867
:10267C0023F4706323F0010343F480736365214BEF
:10268C00994239D0636D23F480136365636DE06CFC
:10269C0013F480531CBFA36D23F00603A3651A4BE0
:1026AC00C3621A4B03631A4B43631C230B60002356
:1026BC0084F850304B6843F010034B60CB6843F008
:1026CC000103CB6032463B46403100F06BFA226886
:1026DC00936823F0004323F03F0343F0040393601B
:1026EC00BDE8F08184F85050FAE7002384F85030AC
:1026FC000120F5E70220F3E7B8F1000FC2D0C5E7DF
:10270C000003045000010450A91F0008531D0008C9
:10271C0011200008026838B5936891680446C80710
:10272C0001D4002038BD9907FBD4936803F00D0346
:10273C00012B19D1936823F0004323F03F0343F09E
:10274C000203936003231360FFF7F2F90546236835
:10275C009B68DB07E5D5FFF7EBF9401B0228F6D9A0
:10276C0023689B68DA07F2D5636D43F01003636549
:10277C00A36D43F00103A3650120D3E738B590F8AE
:10278C005030012B054635D0012380F85030032101
:10279C00FFF7FEFD0446E0B92A68E86CD36823F025
:1027AC000103D36090F82530022B07D100F039FAE1
:1027BC00044618B16B6D43F040036B652A6853688F
:1027CC0023F010035360284644B9FFF7A3FF0446D7
:1027DC0038B1002385F85030204638BDFFF79AFFFA
:1027EC00F7E76B6D23F4885323F0010343F00103E7
:1027FC006B65EEE70224EFE78068C0F3800070475A
:10280C0073B50023019390F85030012B04460D460C
:10281C003ED0012380F85030FFF77CFF002833D1E5
:10282C00626D266822F4885222F0020242F0020203
:10283C006265B36823F0404323F03F0305F0804505
:10284C002B4343F00043B360B368002B12DA019BB7
:10285C0001330193019BB3F5912FF5D3636D23F0F5
:10286C00120343F010036365002384F850300120F9
:10287C0002B070BD636D23F0030343F00103636585
:10288C00002384F85030F3E7636D43F01003F6E750
:10289C000220EDE7704770477047704770470000A3
:1028AC00F0B590F85030012B9BB0024652D001236A
:1028BC0080F850301768284C0020A74216901790CB
:1028CC0008D0516D82F8500041F020015165184636
:1028DC001BB0F0BD214E3046FFF78EFF044610684A
:1028EC00FFF78AFF204330D11D4C0D68A36823F4F9
:1028FC006043E5B14868034392F8300043EA403343
:10290C00A360B868B368034313F0010304D000203C
:10291C00002382F85030DBE78968A0680D4320F46F
:10292C00716121F00F010D43A5601846F0E7A3601B
:10293C00B868B368034313F00103E8D1A16821F42C
:10294C00716121F00F01A160EFE7516D41F02001A1
:10295C005165EAE70220BBE7000004500001045077
:10296C00000304500749CA6822F4E062030212040F
:10297C0003F4E063120C134343F0BF6343F40033DE
:10298C00CB60704700ED00E0164B30B5DC68C4F34B
:10299C000224C4F10705231D042D28BF0425062B92
:1029AC004FF0FF338CBF033C002403FA05F521EAFA
:1029BC000501A34022EA0302A140002841EA0203D8
:1029CC00ACBF00F16040084A4FEA0313B8BF00F0F7
:1029DC000F00DBB2AABF00F56140135480F800333E
:1029EC0030BD00BF00ED00E014ED00E0002808DB76
:1029FC000123420900F01F0003FA00F0014B43F8D9
:102A0C002200704700E100E00138B0F1807F0AD26B
:102A1C00064B074A5860F02182F823100020072249
:102A2C0098601A6070470120704700BF10E000E00A
:102A3C0000ED00E030B5002858D001682C4B9942CD
:102A4C004FF0140442D82B4A0A44B2FBF4F2920021
:102A5C004264A3F207430364022380F82530D0E9D3
:102A6C00024305690A6823432B4345692B43856957
:102A7C002B43C5692B43056A22F4FF4222F07002F6
:102A8C002B431343B4F5804F0B6016D0416C046C90
:102A9C0001F01C0241680F2393409140164A944266
:102AAC006FEA03031AD1D2F8A8402340C2F8A83029
:102ABC00D2F8A8301943C2F8A81000230122C3632E
:102ACC0080F8243080F82520184630BD0B4B0B4481
:102ADC00B3FBF4F39B004364094BBCE7094A14684D
:102AEC0023401360136819431160E6E70120ECE7FB
:102AFC0007040240F8FFFDBF00000240F8FBFDBFD9
:102B0C0000040240A804024010B500283AD0016825
:102B1C000B6823F001030B601B4B99424FF014041C
:102B2C0028D81A4A0A44B2FBF4F292004264A3F287
:102B3C000743036400230B60436C016C03F01C021D
:102B4C00012393404B600F239340114A91420CBFD9
:102B5C00104911490A68DB4313400B600023C3631F
:102B6C00C0E90B33C0E90D3380F8253080F82430F0
:102B7C00184610BD094B0B44B3FBF4F39B004364A4
:102B8C00074BD6E70120F4E707040240F8FFFDBF2E
:102B9C0000000240A8000240A8040240F8FBFDBF60
:102BAC0000040240F0B590F82440012C37D00124E9
:102BBC0080F8244090F82540012CE5B24FF0000637
:102BCC004FF0020429D180F825400468C6632668BA
:102BDC0026F001062660D0E9106707F01C07BD40FF
:102BEC00756063608368102B036B0BBFA260A160E0
:102BFC00E160E2604BB1236843F00E03236023686D
:102C0C0043F0010323600020F0BD236823F004038C
:102C1C002360236843F00A03F0E780F82460022065
:102C2C00F2E790F82530022B06D00423C36300236F
:102C3C0080F824300120704703681A6822F00E02D5
:102C4C001A601A6822F001021A60D0E910130122EE
:102C5C0003F01C0302FA03F34B60002380F82520D9
:102C6C0080F8243018467047016C426C036870B4CD
:102C7C0002F01C020E681D680424944034420ED0ED
:102C8C0015F0040F0BD01A6892065EBF1A6822F07A
:102C9C0004021A60036B4C6073B370BC18470224B7
:102CAC009440344212D015F0020F0FD01A689506DA
:102CBC0006D41A6822F00A021A60012380F8253023
:102CCC0000234C6080F82430C36AE5E70824944064
:102CDC00344211D02C070FD51C6824F00E041C6054
:102CEC00012303FA02F24A60C36380F82530002303
:102CFC0080F82430436BCFE770BC7047094A5369A6
:102D0C0043F4802310B55361EFF3108272B60023A5
:102D1C00CC58C4500433B3F5807FF9D182F31088BA
:102D2C0010BD00BF00200240064B5A69002ABFBFED
:102D3C00054A9A6002F188329A60BABF5869C00F8E
:102D4C00002070470020024023016745034A536965
:102D5C0043F0004353610020704700BF0020024045
:102D6C0070B50546FEF7E4FE104C06462369DB03FE
:102D7C000AD420690E4A02400FD00E494B68134307
:102D8C004B600120226170BD6A1CEFD0FEF7D0FEB3
:102D9C00801BA842EAD30320F5E7206910F001005C
:102DAC00F1D0012323611046EDE700BF0020024063
:102DBC00FAC30200140000202DE9F843254C994673
:102DCC002378012B06460F46904641D001234CF246
:102DDC0050302370FFF7C4FF054630BB1E4D6060BA
:102DEC002A6812F4806217BF2B68227723F4806361
:102DFC002B601CBF02232377E6B96B6943F00103F8
:102E0C006B61C7F80080BFF36F8F0126C7F8049081
:102E1C004CF25030FFF7A4FF054626B10E4A536919
:102E2C0023EA0606566100F03DF80023237028467D
:102E3C00BDE8F883731E012B01D90026E8E7414653
:102E4C003846FFF75BFF022EF7D14FF48026DFE701
:102E5C000225ECE71400002000200240064B10F085
:102E6C00010F1EBF5A6942F004025A615A6942F4BA
:102E7C0080325A61704700BF00200240084B5A69EB
:102E8C00C00022F4FC7200F4FF60104358615A69D0
:102E9C0042F002025A615A6942F480325A61704718
:102EAC0000200240134A137FD9B203F0FD03012B1B
:102EBC000CD1114B186840F400601860186820F4AD
:102ECC0000601860186840F4007018608B1E012BAD
:102EDC000CD8094B196841F480511960196821F418
:102EEC0080511960196841F48061196000231377CF
:102EFC00704700BF14000020002002402DE9F84369
:102F0C00334D2B78012B064688465ED001274CF2B8
:102F1C0050302F70FFF724FF044630BB2D4B6860F8
:102F2C001A6812F4007F1A6824D022F400721A6016
:102F3C001A68510506D51A6822F480621A600323B8
:102F4C002B7700E02F773368012B1DD17068FFF7CA
:102F5C0085FF4CF25030FFF703FF1E4A536923F0F4
:102F6C00040304465361FFF79DFF00232B7020469A
:102F7C00BDE8F883520505D51A6822F480621A6000
:102F8C000223DDE72877DEE74FF0FF33C8F8003087
:102F9C00B768DFF84090D6E902321344BB42E2D95D
:102FAC0071683846FFF76AFF4CF25030FFF7D8FED5
:102FBC00D9F8143023F4FD73C9F8143018B1C8F8DB
:102FCC0000700446CFE70137E5E70224CFE700BFE6
:102FDC0014000020002002402DE9F74FDFF86CE1CF
:102FEC00584C00234FF00F090A6832FA03F502D14E
:102FFC0003B0BDE8F08F012505FA03F818EA0202C8
:10300C0000F098804D6825F0100A4FEA430C032617
:10301C000AF1FF3706FA0CF6012F6FEA060611D8F3
:10302C00876807EA060BCF6807FA0CF747EA0B0725
:10303C008760476827EA0808C5F300179F4047EAEE
:10304C0008074760C76807EA06088F6807FA0CF795
:10305C0047EA0807BAF1020FC76014D14FEAD30848
:10306C0000EB880803F0070AD8F820704FEA8A0AA8
:10307C0009FA0AFB27EA0B0B0F6907FA0AF747EA6A
:10308C000B07C8F8207007683E4005F0030707FAE5
:10309C000CFC4CEA06060660EE004BD5DEF86060D0
:1030AC0046F00106CEF86060DEF8606023F003079E
:1030BC0007F1804706F0010607F58037019603F00B
:1030CC00030C019EBE684FEA8C0C09FA0CF8B0F1A7
:1030DC00904F26EA08082FD01B4EB0422ED006F592
:1030EC008066B0422CD006F58066B0420CBF032639
:1030FC00072606FA0CF646EA0806BE602668D74391
:10310C0015F4803F0CBF3E4016432660666815F4EC
:10311C00003F0CBF3E4016436660A66815F4801F46
:10312C000CBF3E401643A660E668AD0254BF3E405D
:10313C001643E660013357E70026DAE70126D8E7A5
:10314C000226D6E7000401400004004800100240AB
:10315C00374A2DE9F04F00234FF0010A4FF00F08CA
:10316C004FF0030B31FA03F401D1BDE8F08F0AFAEA
:10317C0003FC1CEA010652D023F0030404F1804442
:10318C0004F5803403F00307A568BF0008FA07F9BB
:10319C00B0F1904F09EA050E43D0264DA84242D01B
:1031AC0005F58065A84240D005F58065A8420CBFA6
:1031BC0003250725BD40754513D1156825EA06057D
:1031CC001560556825EA06055560956825EA0605DB
:1031DC009560D56825EA0606D660A56825EA090536
:1031EC00A56005685C000BFA04F4DE08254300EBCF
:1031FC008606056003F00705376AAD0008FA05F589
:10320C0027EA05053562856825EA04058560456869
:10321C0025EA0C054560C56825EA0404C460013341
:10322C00A0E70025C6E70125C4E70225C2E700BFD9
:10323C0000040140000400480369194214BF012036
:10324C00002070470AB181617047816270470000AD
:10325C0010B50A4B44F620621B68B3FBF2F24FF434
:10326C007A735343026800201468013B08BF0320A3
:10327C0031EA040401D0002BF6D110BD0800002067
:10328C00704770477047704770477047704770477A
:10329C00704703681A68D20710B5044606D59A68B9
:1032AC00D10703D501225A60FFF7EAFF23681A6899
:1032BC00920707D59A68900704D502225A602046D7
:1032CC00FFF7DFFF23681A68510707D59A68520782
:1032DC0004D504225A602046FFF7D4FF23681A68ED
:1032EC00100707D59A68110704D508225A602046A2
:1032FC00FFF7C9FF23681A68D20607D59A68D0066B
:10330C0004D510225A602046FFF7BEFF23681A68C6
:10331C00910607D59A68920604D520225A60204659
:10332C00FFF7B3FF23681A68500607D59A68510651
:10333C0004D540225A602046FFF7A8FF23681A687C
:10334C00120607D59A68100604D580225A602046CA
:10335C00FFF79DFF23681A68D10508D59A68D20536
:10336C0005D54FF480725A602046FFF791FF10BDCF
:10337C002DE9F047044672B6604A0368934228D0A0
:10338C0002F5C05293422AD000255C4A9E68DF6841
:10339C005969D3F81890D3F82080D3F828A0934219
:1033AC0023D002F5C052934200F08880002933D11B
:1033BC00B9F1000F44D1BAF1000F73D0504A9342C7
:1033CC0054D15048D0F8882022F44012C0F88820FC
:1033DC0021E04C4AD2F8885005F44025D5E7494AFB
:1033EC00D2F8885005F44015CFE7464A906B40F070
:1033FC0000409063906B20F00040906329B9B9F1C4
:10340C00000F02D1BAF1000F4CD0D2F8880020F492
:10341C004020C2F8880081B11A6942F001021A6199
:10342C00204659610821FFF713FF236803284FF04A
:10343C00080208BF84F83A005A60B9F1000F12D0A4
:10344C0023681A6942F001021A611021C3F818901E
:10345C002046FFF7FDFE236803284FF0100208BF3B
:10346C0084F83A005A60BAF1000F13D023681A6935
:10347C0042F001021A614FF48071C3F828A0204673
:10348C00FFF7E6FE236803284FF4807208BF84F828
:10349C003A005A602368194A934220D002F5C05270
:1034AC00934225D023681A6922F001021A619E60AA
:1034BC00DF60C3F8208062B6BDE8F087114AD06B9C
:1034CC0040F02000D063D06B20F02000D0630029A6
:1034DC007FF477AFB9F1000F3FF46DAF71E7094A94
:1034EC00D2F8883023F440231D43C2F88850D9E722
:1034FC00044AD2F8883023F44013F5E7007C0040EE
:10350C000094004000100240F8B50446002867D033
:10351C0090F83A3003F0FF021BB980F83920FDF720
:10352C006DFF022384F83A3023681A6942F00102D5
:10353C001A614FF48071626B596020469A62FFF7F2
:10354C0087FE032801D10320F8BD2046FFF710FFAA
:10355C0094F83A30032BF6D065682068A66AC168E7
:10356C00012D02D0B6F5000F01D121F01E016269C8
:10357C001C4F4FF6FF739A421CBF21F4604121F09F
:10358C00C0010F40A16845EA06030B43216A0B43B7
:10359C00616A0B433B43E5B9E169256929430B4358
:1035AC00B6F5000F17D04FF6FF718A4204D0A1690F
:1035BC000A43E1690A4313430B4AC3609042E36A2E
:1035CC0004BF226B13430362012384F83A300020BA
:1035DC00BAE7012DE4D1D4E9031529430B43E2E703
:1035EC000120B1E7FEF119FF007C0040022310B569
:1035FC00264A80F83A300368934202F508420446A2
:10360C00106A0CBF40F0010040F0020010626268CA
:10361C00012A07D0A26AB2F5000F02BFDA6822F4C1
:10362C006062DA601A6942F001021A6110225A6073
:10363C00204699611146FFF70BFE032801D10320A8
:10364C0010BD2046FFF794FE94F83A30032BF6D0C9
:10365C0023689A6842F010029A609A6842F002025B
:10366C009A609A6842F480729A609A6842F080027A
:10367C009A601A6942F001021A611A6942F0040256
:10368C001A61012384F83A300020D9E7007C00400D
:10369C000223026810B580F83A30144B9A4203F5B5
:1036AC00084304461A6A0CBF22F0010222F00202FF
:1036BC001A62FFF75DFE94F83A30032BD8B214D09F
:1036CC0023689A6822F010029A609A6822F002022B
:1036DC009A609A6822F480729A609A6822F080024A
:1036EC009A60012384F83A30002010BD007C004021
:1036FC00024B186800F4C060704700BF00700040B7
:10370C00174B1A68B0F5007F02F4C0621ED1B2F5F7
:10371C00007F01D1002070471A6822F4C06242F485
:10372C0000721A600F4A116832224A430E49B2FBEA
:10373C00F1F2194601325869400500D522B94B699E
:10374C005B05E7D503207047013AF4E7B2F5806FCB
:10375C001FBF1A6822F4C06242F480621A60D9E773
:10376C00007000400800002040420F0037B51E4D8D
:10377C00AB6DDA00044618D5FFF7BAFFB0F5007F41
:10378C0023D1802C29D9A02C8CBF022401241749C9
:10379C000A6822F0070222430A60086800F007005A
:1037AC00001B18BF012003B030BDAB6D43F080533C
:1037BC00AB65AB6D03F080530193019BFFF798FF52
:1037CC00AB6D23F08053AB65D8E7802C07D808D0BD
:1037DC00A4F170035C425C41D9E70024D7E70324D1
:1037EC00D5E70224D3E700BF0010024000200240BE
:1037FC00224B9A68D96812F00C0205D00C2A15D10C
:10380C0001F00301012918D119681D48090755BF9A
:10381C00D3F894101968C1F30321C1F3031150F8C4
:10382C0021004AB30C2A09D000207047042A22D068
:10383C00082A144818BF002070470020DA6802F0EC
:10384C000302022A15D00F49032A08BF0846DA687A
:10385C00D968DB68C3F34163C1F30621C2F30212DA
:10386C000133484301325B00B0FBF2F0B0FBF3F0E4
:10387C0070470548EBE70448704700BF0010024052
:10388C008852000800127A000024F4002DE9F74356
:10389C00054618B9012003B0BDE8F083944C0368C9
:1038AC00A668E768DB0606F00C0607F003073DD5B3
:1038BC001EB10C2E6AD1012F68D12368980702D54E
:1038CC00EB69002BE6D02368686A190756BFD4F859
:1038DC00943023681B0903F0F00398423FD9FFF79B
:1038EC0045FF0028D6D1236843F0080323602368E2
:1038FC006A6A23F0F0031343236063682A6A23F493
:10390C007F4343EA02236360FFF772FFA368794A9F
:10391C00C3F30313D35C03F01F03D840764B18603A
:10392C00764B1868FEF7C2F80028B4D12B68D8077C
:10393C0063D42B68990700F1A2802B68180700F15B
:10394C00DF802B68590700F12F812B68990600F155
:10395C00A781EB6A002B40F0CD8100209BE7236808
:10396C0043F008032360236823F0F0030343236030
:10397C0063682A6A23F47F4343EA02236360002EC0
:10398C00C2D1FFF7F3FE0028BED083E7EB691BB36F
:10399C00236843F001032360FEF7CAF880462368CE
:1039AC009A0711D5236843F00803236023686A6AD9
:1039BC0023F0F0031343236063682A6A23F47F43E4
:1039CC0043EA02236360B1E7FEF7B2F8A0EB08000C
:1039DC000228E4D903205EE7236823F00103236067
:1039EC00FEF7A6F8804623689B079FD5FEF7A0F844
:1039FC00A0EB08000228F6D9ECE7082E03D00C2E19
:103A0C0008D1032F06D123689A0392D56B68002B3B
:103A1C008FD13FE76B68B3F5803F10D1236843F437
:103A2C0080332360FEF784F8804623689B0380D4A0
:103A3C00FEF77EF8A0EB08006428F6D9CAE7B3F5C8
:103A4C00A02F04D1236843F480232360E6E7226887
:103A5C0022F480322260226822F480222260002B21
:103A6C00E0D1FEF765F88046236898037FF561AFD7
:103A7C00FEF75EF8A0EB08006428F5D9AAE7042E3F
:103A8C0003D00C2E10D1022F0ED12368590503D56B
:103A9C00EB68002B3FF4FEAE63682A6923F0FE430B
:103AAC0043EA0263636048E7EB687BB1236843F445
:103ABC0080732360FEF73CF8074623685A05EBD465
:103ACC00FEF736F8C01B0228F7D983E7236823F4E6
:103ADC0080732360FEF72CF8074623685B057FF59F
:103AEC002CAFFEF725F8C01B0228F6D972E700BFF1
:103AFC00001002406D520008080000201000002049
:103B0C006B69002B3CD0D4F89430A96903F01002F7
:103B1C0091420ED003F00302022A3FF4BBAEDA0747
:103B2C001BD4D4F89430AA6923F010031343C4F8BF
:103B3C009430D4F8943043F00103C4F89430FDF77A
:103B4C00F7FF0746D4F8943098073FF5FAAEFDF727
:103B5C00EFFFC01B1128F5D93CE7D4F8943023F0C3
:103B6C000103C4F89430FDF7E3FF0746D4F8943012
:103B7C009B07D6D5FDF7DCFFC01B1128F6D929E72A
:103B8C00D4F8943023F00103C4F89430FDF7D0FF3F
:103B9C000746D4F8943099077FF5D3AEFDF7C8FFEC
:103BAC00C01B1128F5D915E7A36DDA002FD4A36D2E
:103BBC0043F08053A365A36D03F080530193019BE5
:103BCC004FF00108984F3B68DB0523D5AA68D00756
:103BDC0031D4D4F8903023F00103C4F89030D4F8E9
:103BEC00903023F00403C4F89030002A3AD1FDF74A
:103BFC009FFF41F288390746D4F89030980749D492
:103C0C00D4F8903023F08003C4F8903033E04FF0B8
:103C1C000008D7E73B6843F480733B60FDF788FFEF
:103C2C0081463B68D905D1D4FDF782FFA0EB090092
:103C3C000228F6D9CEE6D4F8903002F0800123F0B9
:103C4C0080030B43C4F89030D4F89030520742BF35
:103C5C0043F00403C4F89030D4F8903043F00103DF
:103C6C00C4F89030FDF764FF41F288390746D4F868
:103C7C0090309B0708D5B8F1000F3FF466AEA36DEA
:103C8C0023F08053A36560E6FDF752FFC01B484547
:103C9C00EDD99FE6FDF74CFFC01B4845ACD999E622
:103CAC00AB6A9BB1D4F8983043F00103C4F8983058
:103CBC00FDF73EFF0746D4F898309A073FF549AE1A
:103CCC00FDF736FFC01B0228F5D983E6D4F89830EF
:103CDC0023F00103C4F89830FDF72AFF0746D4F807
:103CEC0098309B077FF535AEFDF722FFC01B0228ED
:103CFC00F5D96FE6022B7AD1E3682A6B03F0030146
:103D0C0091421CD1696B03F070020139B2EB011FB7
:103D1C0015D1A96B03F4FE42B2EB012F0FD1EA6B64
:103D2C00520803F4C001013AB1EB425F07D12A6C8F
:103D3C00520803F0C063013AB3EB426F3ED00C2E35
:103D4C003FF4A8AD236823F080732360FDF7F0FEE9
:103D5C00064623689F012BD4E268344B13402A6B30
:103D6C001343AA6B43EA02236A6B013A43EA021338
:103D7C00EA6B5208013A43EA42532A6C5208013A60
:103D8C0043EA4263E360236843F080732360E36893
:103D9C0043F08073E360FDF7CBFE05462368980182
:103DAC003FF5DBADFDF7C4FE401B0228F6D911E64A
:103DBC00FDF7BEFE801B0228CBD90BE623689901C8
:103DCC003FF5CBAD236843F080732360E36843F089
:103DDC008073E360FDF7ACFE054623689A013FF55E
:103DEC00BCADFDF7A5FE401B0228F6D9F2E50C2E62
:103DFC003FF450AD236823F080732360E36823F015
:103E0C000303E360E36823F08873E360FDF790FE3F
:103E1C00054623689B017FF5A0ADFDF789FE401B8D
:103E2C000228F6D9D6E500BF007000408C809FF9BF
:103E3C002DE9F0410D46044610B90120BDE8F08192
:103E4C00404A136803F007038B422AD32368D9072F
:103E5C0032D421688A075BD43A4A136803F007030B
:103E6C00AB425DD811F0040F374D64D10B0706D56A
:103E7C00AB68226923F4605343EAC203AB60FFF7DB
:103E8C00B7FCAB68314AC3F30313BDE8F041D35C14
:103E9C0003F01F03D8402E4B18602E4B1868FDF70B
:103EAC0005BE136823F007030B431360136803F07C
:103EBC0007038B42C1D1C9E76268234E032A3368DA
:103ECC001AD113F0007FB8D0B36823F00303134367
:103EDC00B360FDF72DFE41F288380746B36862687F
:103EEC0003F00C03B3EB820FB3D0FDF721FEC01B24
:103EFC004045F3D90320A1E7022A02D113F4003F75
:103F0C00E1E712B913F0020FDDE713F4806FDAE783
:103F1C000D4AA068936823F0F003034393609BE77A
:103F2C00136823F007032B431360136803F0070394
:103F3C00AB4282D196E7AB68E26823F4E0631343AB
:103F4C00AB6093E700200240001002406D52000865
:103F5C000800002010000020054B064A9B68C3F3A4
:103F6C000223D35C044A106803F01F03D840704747
:103F7C00001002407D52000808000020054B064A44
:103F8C009B68C3F3C223D35C044A106803F01F037D
:103F9C00D8407047001002407D52000808000020F5
:103FAC002DE9F3410546006810F4003039D0754C0A
:103FBC00A36DD80027D4A36D43F08053A365A36DE4
:103FCC0003F080530193019B01276F4E336843F438
:103FDC0080733360FDF7ACFD80463368D90514D58A
:103FEC00D4F8903013F4407303D02A6B934240F012
:103FFC00A380D4F890302A6B23F440731343C4F895
:10400C009030002008E00027DFE7FDF791FDA0EBE2
:10401C0008000228E1D903201FB1A36D23F08053BF
:10402C00A3652B68DF0708D556496C68D1F8882042
:10403C0022F003022243C1F888209E0708D551497B
:10404C00AC68D1F8882022F00C022243C1F88820F9
:10405C005C0708D54B49EC68D1F8882022F0300277
:10406C002243C1F88820990608D546492C69D1F815
:10407C00882022F440622243C1F888209A0508D592
:10408C0040492C6AD1F8882022F440222243C1F8FE
:10409C0088205F0508D53B496C6AD1F8882022F44A
:1040AC0040122243C1F888205E0608D535496C6958
:1040BC00D1F8882022F440522243C1F888201C06F3
:1040CC0008D53049AC69D1F8882022F4404222430B
:1040DC00C1F88820D90508D52A49EC69D1F888207F
:1040EC0022F440322243C1F888209A040FD5254986
:1040FC00AC6AD1F8882022F040622243C1F88820B3
:10410C00B4F1006F02BFCA6842F48012CA605B034C
:10411C000FD51C4AE96AD2F8883023F040630B4370
:10412C00B1F1006FC2F8883003D1D36843F4801327
:10413C00D36002B0BDE8F081D4F89020D4F8903070
:10414C0043F48033C4F89030D4F8903022F44071AA
:10415C0023F48033D207C4F89030C4F890107FF564
:10416C0048AFFDF7E5FC41F288380646D4F89030AC
:10417C009B073FF53EAFFDF7DBFC801B4045F5D9B7
:10418C0049E700BF0010024000700040036A23F0B2
:10419C0001030362036A70B5456882690C6822F4F6
:1041AC00803222F0730222438C6823F002032343F3
:1041BC00124CA04206D0124EB04203D006F58066D7
:1041CC00B04214D1CE6823F008033343A04223F04D
:1041DC00040306D00A4CA04203D004F58064A0422C
:1041EC0005D1D1E9054625F4407534432543456096
:1041FC0082614A684263036270BD00BF002C0140BB
:10420C0000400140036A23F480730362036A42682E
:10421C0070B5C4690D6824F4803424F073042C4305
:10422C008D6823F4007343EA05230F4DA8420ED189
:10423C00CD6823F4006343EA052323F48063D1E9BA
:10424C00055622F44052354342EA051205E0074D6B
:10425C00A842F4D0064DA842F1D042604A68C4612D
:10426C00C263036270BD00BF002C014000400140DE
:10427C0000440140036A23F480530362026A30B5A0
:10428C004468C3690D6823F0807323F4E64343EA62
:10429C0005238D6822F4005242EA05320A4DA842E9
:1042AC0007D005F5A055A84203D005F58065A842B6
:1042BC0004D14D6924F4804444EA85144460C361FC
:1042CC004B680364026230BD002C0140036A23F486
:1042DC0080330362026A30B54468436D0D6823F481
:1042EC00803323F070032B438D6822F4003242EAB2
:1042FC0005420B4DA84207D005F5A055A84203D0A6
:10430C0005F58065A84204D14D6924F4803444EA53
:10431C000524446043654B688365026230BD00BF71
:10432C00002C0140036A23F480130362026A30B547
:10433C004468436D0D6823F0807323F4E04343EA33
:10434C0005238D6822F4001242EA05520A4DA84258
:10435C0007D005F5A055A84203D005F58065A84205
:10436C0004D14D6924F4802444EA852444604365D7
:10437C004B68C365026230BD002C014090F83D30A3
:10438C00012B1FD1022380F83D300368DA6842F01C
:10439C000102DA600C4A934206D0B3F1804F03D08D
:1043AC0002F5A052934207D19968084A0A40062A9E
:1043BC0006D0B2F5803F03D01A6842F001021A60B1
:1043CC000020704701207047002C014007000100BD
:1043DC000368DA6822F00102DA60196A41F21112FC
:1043EC00114208D1196A40F24442114202BF1A68C4
:1043FC0022F001021A60012380F83D300020704742
:10440C007047704770477047704770477047036834
:10441C001A69910710B504460FD5DA6892070CD5C6
:10442C006FF002021A61012202779B69990700F072
:10443C008580FFF7E9FF0023237723681A69520769
:10444C0010D5DA6850070DD56FF004021A610222FC
:10445C0022779B6913F4407F204675D0FFF7D4FF79
:10446C000023237723681A6911070FD5DA6812071E
:10447C000CD56FF008021A6104222277DB699B07C6
:10448C00204667D0FFF7C0FF0023237723681A6903
:10449C00D00610D5DA68D1060DD56FF010021A616E
:1044AC0008222277DB6913F4407F204658D0FFF7AF
:1044BC00ABFF0023237723681A69D20708D5DA6883
:1044CC00D00705D56FF001021A612046FFF79AFF5D
:1044DC0023681A69110608D5DA68120605D56FF03B
:1044EC0080021A61204600F014FB23681A69D0057B
:1044FC0008D5DA68110605D56FF480721A6120466A
:10450C0000F008FB23681A69520608D5DA685006D1
:10451C0005D56FF040021A612046FFF777FF23683C
:10452C001A69910622D5DA6892061FD56FF020021F
:10453C0020461A61BDE8104000F0EABAFFF763FFAD
:10454C002046FFF762FF76E7FFF75DFF2046FFF797
:10455C005CFF85E7FFF757FF2046FFF756FF93E711
:10456C00FFF751FF2046FFF750FFA2E710BD0000F8
:10457C001A4A0368904210B502D0B0F1804F09D1AD
:10458C004C6823F07003904243EA040309D0B0F165
:10459C00804F06D0124A904203D002F580629042BE
:1045AC0003D1CA6823F4407313434A6923F0800390
:1045BC00134303608B68C3620B688362074B98429A
:1045CC0007D003F5A053984203D003F580639842BB
:1045DC0001D10B6903630123436110BD002C014021
:1045EC000040014010B5044650B390F83D3003F044
:1045FC00FF021BB980F83C20FCF720FF0223206847
:10460C0084F83D30211DFFF7B3FF012384F84830B7
:10461C00002084F83E3084F83F3084F8403084F831
:10462C00413084F8423084F8433084F8443084F8C4
:10463C00453084F8463084F8473084F83D3010BD5E
:10464C000120FCE710B5044650B390F83D3003F060
:10465C00FF021BB980F83C20FFF7D2FE0223206832
:10466C0084F83D30211DFFF783FF012384F8483087
:10467C00002084F83E3084F83F3084F8403084F8D1
:10468C00413084F8423084F8433084F8443084F864
:10469C00453084F8463084F8473084F83D3010BDFE
:1046AC000120FCE738B50D46044630B390F83D3098
:1046BC0003F0FF021BB980F83C20FFF7A2FE022397
:1046CC00206884F83D30211DFFF752FF23681A68DB
:1046DC0022F008021A601A682A431A60012384F82F
:1046EC004830002084F83E3084F83F3084F8443061
:1046FC0084F8453084F83D3038BD0120FCE70000DB
:10470C00036A23F010030362036A426870B584697C
:10471C000D6824F0807424F4E64444EA05248D6882
:10472C0023F0200343EA05130E4DA8420ED1CD68A9
:10473C0023F0800343EA051323F04003D1E9055627
:10474C0022F44062354342EA850205E0064DA84258
:10475C00F4D0064DA842F1D042604A68846182636D
:10476C00036270BD002C0140004001400044014038
:10477C0010B590F83C30012B04462AD001230C2AAA
:10478C0080F83C301DD008D8042A12D0082A14D046
:10479C005AB1002084F83C0010BD102A15D0142A00
:1047AC00F7D10068FFF7BEFDF3E70068FFF7EEFCFA
:1047BC00EFE70068FFF7A4FFEBE70068FFF722FDC7
:1047CC00E7E70068FFF756FDE3E70068FFF77EFDBB
:1047DC00DFE70220E0E710B58468114324F47F443E
:1047EC0041EA03232343836010BD000070B590F8A9
:1047FC003C30012B04464FF0020025D084F83D00DC
:10480C000123206884F83C308268414B134083605C
:10481C000B68602B4DD032D8402B62D015D8202B92
:10482C0003D009D833F0100208D1826822F070024C
:10483C00134343F0070320E0302BF6D00123002074
:10484C0084F83D3084F83C0070BD502BF6D14A689A
:10485C00CE68016A056A25F001050562836921F0BD
:10486C000A0123F0F00343EA06130A438361026250
:10487C00836823F0700343F057038360DEE7702BEB
:10488C000CD0B3F5005FD9D1CB68D1E90121FFF78A
:10489C00A2FF2268936843F4804308E0CB68D1E917
:1048AC000121FFF798FF2268936843F07703936028
:1048BC00C4E74D68CE68016A21F01001016282697B
:1048CC00036A22F4704223F0A00343EA051342EA80
:1048DC00063282610362836823F0700343F067033E
:1048EC00CBE74A68CE68016A056A25F001050562C6
:1048FC00836921F00A0123F0F00343EA06130A430B
:10490C0083610262836823F0700343F04703B4E7CA
:10491C008800FEFF036A01F01F0110B501248C40D2
:10492C0023EA04030362036A8A401A43026210BD3D
:10493C0010B5044629B990F83E30012B31D0012036
:10494C0010BD042907D190F83F30012BF7D1022379
:10495C0080F83F3028E0082907D190F84030012B2F
:10496C00EDD1022380F840301EE00C2907D190F8DD
:10497C004130012BE3D1022380F8413014E010299F
:10498C0007D190F84230012BD9D1022380F8423064
:10499C000AE090F84330012BD1D1022380F8433048
:1049AC0002E0022380F83E3001222068FFF7B2FFBC
:1049BC002368144A934206D013498B4203D001F565
:1049CC0080618B421BD1596C934241F40041596474
:1049DC0006D199680D4A0A40062A08D10020AFE793
:1049EC00B3F1804FF5D0084A934203D1F1E7B2F509
:1049FC00803FF3D01A6842F001021A60EEE7B3F17F
:104A0C00804FF2E7002C01400040014007000100FC
:104A1C0038B50446002200680D46FFF77BFF23687B
:104A2C00214A934207D002F5A052934203D002F5DB
:104A3C00806293420DD1196A41F21112114208D1D0
:104A4C00196A40F24442114202BF5A6C22F40042ED
:104A5C005A64196A41F21112114208D1196A40F2D2
:104A6C004442114202BF1A6822F001021A6001236B
:104A7C001DB984F83E30002038BD042D02D184F8D5
:104A8C003F30F8E7082D02D184F84030F3E70C2DC5
:104A9C0002D184F84130EEE7102D0CBF84F842307F
:104AAC0084F84330E7E700BF002C014070B590F864
:104ABC003C30012B4FF0020323D00268124D80F8DA
:104ACC003D3053689468AA4202BF4E6823F47003C9
:104ADC0033430E6823F070033343AA42536005D06E
:104AEC00B2F1804F02D0094B9A4204D1896824F06C
:104AFC0080030B439360012380F83D30002380F842
:104B0C003C30184670BD00BF002C014000400140F5
:104B1C0070477047704703681A6822F490721A60E5
:104B2C009A6822F001029A60026E012A02BF1A688A
:104B3C0022F010021A602023C36700230366436629
:104B4C00704738B50546A8B12423836703681A68F3
:104B5C00002422F001021A601C605C609C60FCF76F
:104B6C003DFDC5F8804085F87440AC672046EC6785
:104B7C002C6638BD0120FCE7704770477047806A8F
:104B8C000368826FC16F10B59C6824060AD5212A70
:104B9C0008D10022A0F852201A6822F0C0021A6034
:104BAC00202282679B685B0606D5222904D100234C
:104BBC00A0F85A30FFF7AFFFD0F8803043F0100365
:104BCC00C0F88030FFF7DAFF10BD7047806A08B577
:104BDC00036E012B05D1B0F858104908FFF7F5FF0B
:104BEC0008BDFFF7CAFFFBE708B50346806A1B68E0
:104BFC001B6813F0200317D1A0F85A3003681A6809
:104C0C0022F480721A609A6822F001029A609A6803
:104C1C0022F040029A602022C267026E012A02BF73
:104C2C001A6822F010021A60036E012B04D1B0F83E
:104C3C005810FFF7CAFF08BDFFF79EFFFBE7000007
:104C4C00F8B5044603682169A2681D68C0690A4367
:104C5C0061690A437A49024329400A431A605A6837
:104C6C00E16822F440520A435A60764AA1699342A1
:104C7C001CBF226A11439A6822F430620A439A607C
:104C8C00714A934217D1714BD3F8883003F0030368
:104C9C00013B022B00F2B0806D4AD35CB0F5004FA3
:104CAC0040F08B80082B22D8DFE803F068A985211F
:104CBC00822121216C00674A934206D1634B664ADC
:104CCC00D3F8883003F00C03E7E7644A934218D119
:104CDC005E4BD3F8883003F03003202B00F0878034
:104CEC0007D8002B00F09480102B00F08B80012053
:104CFC0024E0302BFBD1B0F5004F43D04FF40040F3
:104D0C008DE0504A9342F2D1504BD3F8883003F4E3
:104D1C004063B3F5006F15D006D85BB1B3F5806F67
:104D2C00E5D1FEF765FD07E0B3F5406FDFD14FF439
:104D3C00004008E0FFF710F928B900200023C4E96F
:104D4C001933F8BD4648626802EB42038342CED861
:104D5C00B0EB023FCBD856084FF480710027E1FB33
:104D6C000067002330463946FBF72AFA3D4BA0F585
:104D7C0040729A42BBD82368D860DEE7FFF7ECF8A4
:104D8C000028DAD06268530803EB4000B0FBF2F065
:104D9C0083B2A3F110014FF6EF729142A7D820F025
:104DAC000F00226880B2C3F342031843D060C4E7FB
:104DBC00FEF71EFDE4E72A48E4E7082B97D801A28A
:104DCC0052F823F0234E0008F54D0008014E000860
:104DDC00FB4C0008174E0008FB4C0008FB4C00086D
:104DEC00FB4C0008094D0008FFF7C8F815E0B0F5BA
:104DFC00004FE0D01A4812E0B0F5004FF4D1FFF7A5
:104E0C00BDF8BDE7B0F5004FD2D0FEF7F1FC04E0E1
:104E1C00B0F5004FB2D0FFF79FF800288DD0626834
:104E2C0000EB5203B3FBF2F39BB2A3F110014FF66C
:104E3C00EF7291423FF65BAF2268D3607DE700BF13
:104E4C00F369FFEF00800040003801400010024081
:104E5C00B852000800440040BB5200080048004013
:104E6C000024F400FFFC0F00436ADA0710B506D5E6
:104E7C000168846A4A6822F4003222434A609C0723
:104E8C0006D50168C46A4A6822F4803222434A601B
:104E9C00590706D50168046B4A6822F48022224324
:104EAC004A601A0706D50168446B4A6822F400422E
:104EBC0022434A60DC0606D50168846B8A6822F4BA
:104ECC00805222438A60990606D50168C46B8A68B1
:104EDC0022F4005222438A605A060FD50168046CF2
:104EEC004A6822F480122243B4F5801F4A6005D12F
:104EFC004A68446C22F4C00222434A601B0606D561
:104F0C000268816C536823F400230B43536010BD7B
:104F1C002DE9F041DDF8188004460E4615461F4673
:104F2C002268D36936EA03030CBF01230023AB428A
:104F3C0001D000201AE0B8F1FF3FF2D0FCF7F8FDE9
:104F4C00C01B40452068036802D8B8F1000F0FD190
:104F5C0023F4D0730360836823F001038360202360
:104F6C00A367E367002384F874300320BDE8F08165
:104F7C005A07D5D5C3691B05D2D54FF4006303621C
:104F8C00036823F4D0730360836823F00103836008
:104F9C002023A367E367C4F88030E3E72DE9FF41E2
:104FAC009846836F202B04460E4617464ED1002997
:104FBC004AD0002A48D090F87430012B46D00123F7
:104FCC0080F8743000252123C0F880508367FCF7EB
:104FDC00AFFDA268A4F85070B2F5805F0346A4F848
:104FEC00527003D122690AB935461646002284F85C
:104FFC007420B4F85220CDF8008092B23AB9402116
:10500C002046FFF785FF50B92023A36708E0002254
:10501C00802120460393FFF77BFF039B18B10320ED
:10502C0004B0BDE8F08121685EB935F8022BC2F3FB
:10503C0008020A85B4F85220013A92B2A4F8522020
:10504C00D7E716F8012BF4E70120E9E70220E7E7A0
:10505C0030B50446002585B0C0F88050FCF768FDDB
:10506C00226812681107034615D422681268520789
:10507C0009D56FF07E4200924FF480010022204649
:10508C00FFF746FFA0B920230020A36784F8740023
:10509C00E36720660DE06FF07E42009203902A4693
:1050AC004FF400112046FFF733FF039B0028DCD0A0
:1050BC00032005B030BD10B5044640B3836F1BB957
:1050CC0080F87430FCF73EFA22682423A367136837
:1050DC0023F0010313602046FFF7B2FD012816D020
:1050EC00636A13B12046FFF7BFFE23685A6822F4A7
:1050FC0090425A609A6822F02A029A601A6842F02A
:10510C00010220461A60BDE81040FFF7A1BF012044
:10511C0010BD000070B522230025C0F88050044655
:10512C004165A0F85820C367006FB8B1144B2668CE
:10513C00C362144B0363144BC0E90D3513460A4686
:10514C0006F12401FDF72EFD40B11023C4F8803088
:10515C00202384F87450A367012070BD23680020BD
:10516C0084F874001A6842F480721A609A6842F0EB
:10517C0001029A609A6842F040029A60EDE700BF23
:10518C00F54B0008D94B00088B4B0008C36F202B44
:10519C0010B41DD1C1B1BAB190F87430012B17D035
:1051AC00012380F8743000230A4C03660368A34281
:1051BC0006D05C68240242BF1C6844F080641C600A
:1051CC005DF8044BFFF7A6BF01205DF8044B704758
:1051DC000220FAE70080004070B50D4D0D4C641BA9
:1051EC00A4100026A64209D10B4D0C4C00F020F85F
:1051FC00641BA4100026A64205D170BD55F8043BD3
:10520C0098470136EEE755F8043B98470136F2E72C
:10521C00D0520008D0520008D0520008D4520008D6
:10522C0002440346934200D1704703F8011BF9E78F
:10523C00F8B500BFF8BC08BC9E467047F8B500BF77
:08524C00F8BC08BC9E46704747
:1052540041542B534C4545500A0041542B534C4563
:1052640045500D0A003C423E0000000000000000D2
:1052740000010203040607080900000000010203FC
:1052840004000000A0860100400D0300801A0600FF
:1052940000350C0040420F0080841E0000093D00D0
:1052A40000127A000024F40000366E010048E80180
:1052B400006CDC020402080010101004101010022C
:0452C40010101008AE
:0852C80034AFFF7F010000007C
:0452D000B101000820
:0452D4008D01000840
:1052D800010104000100000000093D000100000078
:1052E80010000000000000000000000000000000A6
:1052F80000000000010000000000000000000000A5
:0453080000000000A1
:0400000508001A6570
:00000001FF
