:020000040800F2
:1000000000A00020911A0008551600085716000895
:10001000591600085B1600085D1600080000000075
:100020000000000000000000000000005F16000853
:10003000611600080000000063160008651600083D
:10004000E11A0008E11A0008E11A0008E11A0008A4
:10005000E11A0008E11A0008E11A0008E11A000894
:10006000E11A0008E11A0008E11A00086916000800
:10007000E11A0008E11A0008E11A0008E916000870
:10008000E11A0008E11A0008F51600080000000057
:10009000000000000000000000000000E11A00085D
:1000A0000118000825180008E11A0008E11A0008E4
:1000B000E11A00080000000000000000E11A00083A
:1000C000E11A0008E11A0008E11A0008E11A000824
:1000D000E11A0008E11A0008E11A0008E11A000814
:1000E000E11A0008E11A000800000000000000000A
:1000F0000000000000000000000000000000000000
:1001000000000000000000000000000000000000EF
:1001100000000000000000005D1800080000000062
:10012000E11A0008E11A0008E11A0008E11A0008C3
:10013000E11A0008000000000000000000000000BC
:10014000E11A0008E11A000859190008E11A00082C
:10015000E11A0008E11A0008E11A0008E11A000893
:10016000E11A0008E11A0008000000000000000089
:1001700000000000E11A000800000000000000007C
:0C018000E11A0008E11A0008E11A00086A
:10018C0010B5054C237833B9044B13B10448AFF3C5
:10019C0000800123237010BD3400002000000000FB
:1001AC00CC53000808B5034B1BB103490348AFF30C
:1001BC00008008BD0000000038000020CC5300086F
:1001CC0053B94AB9002908BF00281CBF4FF0FF31B2
:1001DC004FF0FF3000F074B9ADF1080C6DE904CEAE
:1001EC0000F006F8DDF804E0DDE9022304B0704706
:1001FC002DE9F047089D04468E46002B4DD18A42CE
:10020C00944669D9B2FA82F252B101FA02F3C2F100
:10021C00200120FA01F10CFA02FC41EA030E944091
:10022C004FEA1C48210CBEFBF8F61FFA8CF708FBB2
:10023C0016E341EA034306FB07F199420AD91CEB8A
:10024C00030306F1FF3080F01F81994240F21C81BC
:10025C00023E63445B1AA4B2B3FBF8F008FB103304
:10026C0044EA034400FB07F7A7420AD91CEB040439
:10027C0000F1FF3380F00A81A74240F20781644409
:10028C00023840EA0640E41B00261DB1D44000238E
:10029C00C5E900433146BDE8F0878B4209D9002DF2
:1002AC0000F0EF800026C5E9000130463146BDE87C
:1002BC00F087B3FA83F6002E4AD18B4202D38242E6
:1002CC0000F2F980841A61EB030301209E46002D95
:1002DC00E0D0C5E9004EDDE702B9FFDEB2FA82F2EA
:1002EC00002A40F09280A1EB0C014FEA1C471FFA48
:1002FC008CFE0126200CB1FBF7F307FB131140EA2F
:10030C0001410EFB03F0884208D91CEB010103F1FB
:10031C00FF3802D2884200F2CB804346091AA4B2BD
:10032C00B1FBF7F007FB101144EA01440EFB00FE91
:10033C00A64508D91CEB040400F1FF3102D2A645F6
:10034C0000F2BB800846A4EB0E0440EA03409CE795
:10035C00C6F12007B34022FA07FC4CEA030C20FA42
:10036C0007F401FA06F31C43F9404FEA1C4900FA62
:10037C0006F3B1FBF9F8200C1FFA8CFE09FB1811DF
:10038C0040EA014108FB0EF0884202FA06F20BD952
:10039C001CEB010108F1FF3A80F08880884240F2A2
:1003AC008580A8F102086144091AA4B2B1FBF9F0E6
:1003BC0009FB101144EA014100FB0EFE8E4508D9E1
:1003CC001CEB010100F1FF346CD28E456AD9023866
:1003DC00614440EA0840A0FB0294A1EB0E01A1424B
:1003EC00C846A64656D353D05DB1B3EB080261EBB9
:1003FC000E0101FA07F722FA06F3F1401F43C5E993
:10040C00007100263146BDE8F087C2F12003D840C8
:10041C000CFA02FC21FA03F3914001434FEA1C470A
:10042C001FFA8CFEB3FBF7F007FB10360B0C43EAFC
:10043C00064300FB0EF69E4204FA02F408D91CEBAC
:10044C00030300F1FF382FD29E422DD902386344AA
:10045C009B1B89B2B3FBF7F607FB163341EA03414A
:10046C0006FB0EF38B4208D91CEB010106F1FF3899
:10047C0016D28B4214D9023E6144C91A46EA004690
:10048C0038E72E46284605E70646E3E61846F8E622
:10049C004B45A9D2B9EB020864EB0C0E0138A3E76B
:1004AC004646EAE7204694E74046D1E7D0467BE74C
:1004BC00023B614432E7304609E76444023842E7C4
:1004CC00704700BF10B5164C0821204604F09AFA6C
:1004DC000C21204604F096FAC82001F045FB0821B7
:1004EC00204604F001FB0C21204604F0FDFAC82044
:1004FC0001F03AFB0821204604F084FA0C21204636
:10050C0004F080FAC82001F02FFB0821204604F0EB
:10051C00EBFA20460C21BDE8104004F0E5BA00BF10
:10052C00C0020020574BF0B51A8841F2342192B228
:10053C008A4287B01FD101285BD10023CDE901335A
:10054C001F220123504CCDE90423237002F032FC0E
:10055C0020700028FAD101A902A802F019FDC8B137
:10056C000123237002F038FC20700028FAD1FFF729
:10057C00A9FF07B0F0BD0028DFD1444B1880444BD5
:10058C001880444B1880444B1880444B4FF48072B5
:10059C001A80D2E73D4B3B4F1D883D4B1B8845EAEB
:1005AC0003453E4B1A8841F23426012346EA0246A3
:1005BC00237032462B463946002002F043FC207053
:1005CC000028F6D1344B364F1A88324B1D88354BE8
:1005DC001E6845EA0245012346EAE57623702A4661
:1005EC0033463946002002F02DFC20700028F6D14D
:1005FC00B6E72A4A598811809A882449294C92B224
:10060C000A802949C2F301220A70D888204A80B294
:10061C00108019891F4A89B211805A891E4B92B2D7
:10062C001A80224BD3F80C38236007EE903AF5EE83
:10063C00C07AF1EE10FA9CDD9FED1D7A1D4B67EE32
:10064C00877A07EE100AB8EE477AC7EE876A07EE8C
:10065C00101AFCEEE66AB8EE477AC3ED006AC7EEF4
:10066C00876A154B07EE102AFCEEE66AB8EE477A5D
:10067C00C3ED006AC7EE876A104BFCEEE66AC3ED69
:10068C00006A76E700F80008920000207400002051
:10069C007C0000207E000020800000204C0D0020FB
:1006AC0008F8000878000020180E002000F0000860
:1006BC0000007A4450000020540000205800002014
:1006CC0010B596B04422002105A804F071FE142246
:1006DC000021684604F06CFE4FF4007003F058F8EB
:1006EC0018230593012300240A930C9305A8702367
:1006FC00CDE90D43109403F011F90F23CDE900342B
:10070C002146B0236846CDE90234049403F0DCFBA7
:10071C0016B010BD2DE9F04FCD4DDFF87493DFF816
:10072C0074B393B001F0FEF9FFF7CAFF1422002155
:10073C000BA804F03DFEEB6C43F00103EB64EB6C97
:10074C0003F001030293029BEB6C43F00203EB6496
:10075C00EB6C03F002030393002241F242114FF0C1
:10076C009040039B02F0B6FD0022BA4818210024E9
:10077C0002F0B0FD012641F202130BA94FF090409C
:10078C00CDE90B36CDE90D4402F06CFC4FF0400E78
:10079C0011230BA94FF09040CDE90BE3CDE90D44AB
:1007AC004FF4006802F05EFC4FF488130BA94FF075
:1007BC009040CDE90B830D9402F054FC4FF40043B0
:1007CC000BA94FF09040CDE90B3418270D9402F093
:1007DC0049FCA0480BA9CDE90B76CDE90D4402F0FC
:1007EC0041FCAB6C3343AB64AB6C9B4D334022464A
:1007FC00214601930B20019B02F00AF90B2002F019
:10080C0039F9224621460F2002F002F90F2002F09E
:10081C0031F93A4621460BA8CDE90744099404F076
:10082C00C7FD8E4B2E83C5E900340823C5E902347D
:10083C00042702232846EB61C5E90A442E616F6147
:10084C0085F8204085F830406C6385F8384001F01D
:10085C00B5F907A92846079402F066F80623CDE9F6
:10086C000B930BA97F234FF0030A2846CDE90DA368
:10087C00CDE90F7601F0EAFB0C230BA92846CDE954
:10088C000BB3109401F0E2FB7F21284601F0FCFF32
:10089C0004460028F8D17248724A04614FF4E133DF
:1008AC00C0E900230C232025C0E905344FF4005384
:1008BC00C3634562C0E90244C0E9074404F0ABFCE1
:1008CC00102221460BA804F073FD674E674B099468
:1008DC00C6E900346423C6E9033430468023B3618F
:1008EC00CDE90744B460746103F0DEFE4FF480532D
:1008FC000BA930460B9303F0DBFF0821304603F0C5
:10090C0033FF07A930460795099404F03BF91822E8
:10091C0021460BA804F04CFD554D564B2C6101277C
:10092C00C5E9003404234FF4B0616B612F834FF49D
:10093C0080632846C5E90A13C5E90244EF6185F8CE
:10094C00204085F830406C6385F8384001F036F96A
:10095C0049480623CDE90B034FF0004C7F230BA92C
:10096C002846CDE90DC3CDE90F4701F06FFB7F2180
:10097C00284601F089FF04460028F8D101461022D0
:10098C0007A83E4D3E4F04F013FD1C2221460BA838
:10099C00CDE90444069404F00BFD4FF08043C5E907
:1009AC0000344FF0800838232846C5E90334AC6086
:1009BC00C5F8188003F078FE4FF4805307A9284639
:1009CC00079303F075FF284603F09EFE202304A92D
:1009DC0028464FF002090493069404F0D3F80BA9AF
:1009EC0030230C222846CDE90B34CDF834900F94EB
:1009FC0003F020FF2A68D36943F40063D3612846CF
:100A0C0000F086FD1F4BBC60C7E90034384647F246
:100A1C003053C7E90334C7E9054803F045FE082104
:100A2C00384603F0A1FE184D184BAC60C5E90039EF
:100A3C00284644F62063EB60C5F81880CDE90B44DA
:100A4C000D9403F031FE0BA928460B9424E000BF53
:100A5C0000100240000400489400002000000450E4
:100A6C0058030020003801402802002000400140BB
:100A7C00F80000200001045000002143C0020020B7
:100A8C0074020020004401400C03002000100040C0
:100A9C0000106032000052C7BF4D0D9404F072F884
:100AAC00BE4BAC60C5E900344FF6FF736B61284652
:100ABC004FF48003C5E90934C5E90B442C626C631F
:100ACC0002F06AFD284602F02BFEB54BDFEDB56A4D
:100ADC001A88ADF810209B78B34A8DF81230B2F812
:100AEC00A810B2F8CA30DFF8D4925B1A07EE903A2D
:100AFC00B8EEE77AB2F8A830C6EE877A9BB207EE6A
:100B0C00103AB8EE477AF3EE0E6AE7EEC76AA74BD7
:100B1C00B1EE007A67EE877AB0EE087A67EE877AE4
:100B2C00C3ED006AC7EE876AA14BC3ED006A01F002
:100B3C0015F8A04B021E18609F4B18BF01221A70AB
:100B4C009E4B1C609E4B804620461C60FFF7EAFCC7
:100B5C009C4A9D481388013B9BB240F6FE718B4228
:100B6C0084BF3C2313800821012202F0B3FB012235
:100B7C0040214FF0904002F0ADFB336893486FF08A
:100B8C0001041C6103F05CFC0821914803F03AFF5E
:100B9C000C218F4803F036FF012202214FF09040C8
:100BAC0002F098FB3B688B481C6103F049FC8A4AB5
:100BBC008A48002313808A4A138003F041FC894B36
:100BCC001B78ABB100F0CAFFA0EB0800B0F5FA6FD0
:100BDC000ED9844A84480023137001F0BFFC00F046
:100BEC00BDFF744B4FF4FA4118606B4802F046FDA0
:100BFC004FF400414FF0904002F066FB012840F0AA
:100C0C0010837A4C23784BB1794804F004FB784874
:100C1C0014220BA904F080FB00232370754B93F86E
:100C2C002530012B4CD1724814220BA904F074FB13
:100C3C009DF82C303C2B43D19DF82E303E2B3FD1D0
:100C4C0000220BA9134611F8010B01320344122A9E
:100C5C009BB2F8D19DF83E10DAB2914230D19DF89A
:100C6C003F20B2EB132F2BD19DF82D30312B40F0C0
:100C7C005381614B614D624C1F7862482E6821682C
:100C8C00002300EB47001A469E4640F6020C012F4B
:100C9C0008BF002120F822E002F1010204BF3B460C
:100CAC000E466245F3D10022C9F800200BB12E602C
:100CBC00216000F053FF3F4B1860534B00221A6029
:100CCC00524B1B78002B40F0A1814B4F4D4C3B7885
:100CDC00002B40F094824223364E8DF8113000F0F8
:100CEC003DFF3B7832684FF47A75801AB0FBF5F013
:100CFC0024F8130000F032FF3B7831689A1C401A3C
:100D0C00B0FBF5F0000C24F812003F4A126838488A
:100D1C00DFF8FCA0DFF8D8B0191D063324F8112039
:100D2C00120C24F8132004A94FF47A73032204F054
:100D3C00E5F900251420AAF8005000F015FF2E4606
:100D4C003B7803EB45030DF1030134F813308DF8B8
:100D5C0002301A0A8DF8032052FA83F3BAF80020F5
:100D6C001344AAF8003001224FF47A73584604F069
:100D7C00C5F94FF47A7301220DF10201584604F0C3
:100D8C00BDF9082E00F348820136013540F21243BA
:100D9C009D42D5D13EE000BFEC0100200094004004
:100DAC00F95300080000C8420075FF1F404E002098
:100DBC003C4E0020480D0020040000207000002054
:100DCC00880000204C0D0020000400482802002060
:100DDC00C002002074020020640000200C030020DC
:100DEC006200002000000020F8000020010000201C
:100DFC0058030020A4010020200E00208C000020AD
:100E0C0068000020240E002084000020400D0020EB
:100E1C00220E0020142000F0A7FE664B66481B88AB
:100E2C008DF802301B0A8DF8033001224FF47A73CF
:100E3C000DF1030104F062F94FF47A7301220DF104
:100E4C0002015D4804F05AF900F088FE5B4B186013
:100E5C005B4B01221A7000F081FED9F8003044F689
:100E6C002062C01A904201D8002B50D100224021A0
:100E7C004FF0904002F02EFA52495348022201F0F2
:100E8C0013FC00F06BFE514B514A1B881188C9F8BA
:100E9C00000099423BD013804FF4805101224FF057
:100EAC00904043F4204402F015FA4A48494E01227E
:100EBC00102102F00FFA47480022102102F00AFA22
:100ECC0000224FF480514FF0904002F003FA0F25AE
:100EDC0044FA05F212F0010218BF01224FF480719E
:100EEC004FF0904002F0F6F901221021304602F04A
:100EFC00F1F900221021304602F0ECF9013DE7D265
:100F0C0001224FF480514FF0904002F0E3F94FF47E
:100F1C00FA7000F029FE52E6322B71D12E4ABDF840
:100F2C002F3013802D4ABDF83100BDF833102C4CF6
:100F3C00BDF83B50C3F3012313702A4BBDF8352089
:100F4C001880294B1980294B1A80DDF83730236023
:100F5C0007EE903A1D4CF5EEC07AF1EE10FA2580B2
:100F6C0024DD9FED237A234B67EE877A07EE100A78
:100F7C00B8EE477AC7EE876A07EE101AFCEEE66AFF
:100F8C00B8EE477AC3ED006AC7EE876A1A4B07EED4
:100F9C00102AFCEEE66AB8EE477AC3ED006AC7EE9B
:100FAC00876A164BFCEEE66AC3ED006A0120FFF778
:100FBC00B9FA85E6220E0020580300201C0E0020F2
:100FCC00040000205C000020940000204C0D002048
:100FDC00900000200004004874000020180E00202F
:100FEC00780000207C0000207E0000208000002083
:100FFC0000007A44500000205400002058000020CB
:10100C00332B40F0F0809E4B01221A7000F0A6FDAD
:10101C009B4ADFF8A0A29B4CDFF89CB20025157010
:10102C004C224FF47A738DF81120B0FBF3F60322A7
:10103C0004A9954807958DF8205004F05FF84FF4FB
:10104C007A7301225146904804F058F89AF800201F
:10105C00F0B2C6F3072102440A448DF802008DF861
:10106C00031022804FF47A7301220DF1030186489C
:10107C0004F044F84FF47A7301220DF10201824816
:10108C0004F03CF820888DF80350360C8DF8026083
:10109C004FF47A73064401220DF103017A4826803D
:1010AC0004F02CF84FF47A7301220DF1020176480A
:1010BC00754E04F023F84FF47A73052207A9724891
:1010CC0004F01CF8142000F04FFD9AF80030AB42ED
:1010DC000BF10C077FF79EAE57F80C2C2188D3B27E
:1010EC008DF80230C2F307220B4413448DF8032011
:1010FC00238001224FF47A730DF10301304603F083
:10110C00FDFF4FF47A7301220DF10201304603F01A
:10111C00F5FF57F80C3C2188C3F307421B0E8DF8E2
:10112C0003300B4413448DF80220238001224FF42A
:10113C007A730DF10301304603F0E0FF4FF47A733C
:10114C0001220DF10201304603F0D8FF228817F876
:10115C00083C13440BF10401238001224FF47A73F1
:10116C00304603F0CBFF57F8042C2188D3B28DF80E
:10117C000230C2F307220B4413448DF80320238062
:10118C0001224FF47A730DF10301304603F0B6FFE0
:10119C004FF47A7301220DF10201304603F0AEFFD9
:1011AC0057F8043C2188C3F307421B0E8DF803301B
:1011BC000B4413448DF80220238001224FF47A73E0
:1011CC000DF10301304603F099FF4FF47A730122BD
:1011DC000DF10201304603F091FF142000F0C4FC25
:1011EC000135BB4671E7342B03D1284B01221A7011
:1011FC0066E5352B7FF464AD244B0022F7E76222C1
:10120C008DF81120224A126824F81320991C120C14
:10121C0024F811201F4A79E5142000F0A5FC0026C3
:10122C00B3E51D4C2378002B3FF415AE00F096FC73
:10123C001A4B1B68C01AB0F57A7F7FF60CAE0023F0
:10124C001749237009224FF47A730F4803F056FFA5
:10125C00C82000F089FC4FF47A7312490A480A221C
:10126C0003F04CFF012208210F4802F033F80F481D
:10127C0003F0E6F8044803F0E1FC0D4BE9E500BF90
:10128C00400D0020220E002058030020200E0020CC
:10129C00680000208C000020040000201C0E0020A0
:1012AC00E4530008EE530008000400482802002014
:1012BC0001000020420D0020E003002070470000D8
:1012CC000A4B1A6E42F001021A661A6E82B002F0D4
:1012DC0001020092009A9A6D42F080529A659B6DC1
:1012EC0003F080530193019B02B070470010024041
:1012FC0070B514228AB0054600210DEB020004F0F3
:10130C0057F82B68354A934243D1354A1368013359
:10131C00012B1360334B08D1DA6C42F40052DA64BF
:10132C00DA6C02F400520192019ADA6C2E4C42F003
:10133C000102DA64DB6C03F001030293029B80264A
:10134C000B2305A94FF09040CDE9056301F08AFE0F
:10135C004FF48070254926614FF480620023C4E964
:10136C0005022046C4E90013C4E90233C4E907337B
:10137C0001F0A2FB08B1FFF7A1FFEC64A56200220B
:10138C001220114601F044FB122001F073FB0AB04D
:10139C0070BD174A9342FAD1114A13680133012BDD
:1013AC001360104B08D1DA6C42F40052DA64DA6C38
:1013BC0002F400520392039ADA6C0E4842F00202D5
:1013CC00DA64DB6C03F002030493049B02220B230C
:1013DC0005A9CDE9052301F045FED0E70000045036
:1013EC00444E0020001002405C0100200800024026
:1013FC00000104500004004810B504468EB034229D
:10140C00002101A803F0D4FF2268114B9A421DD190
:10141C004FF48063019301A84FF480130A9302F0F8
:10142C0021FE08B1FFF74AFF0A4BDA6D42F02002A9
:10143C00DA65DB6D002203F0200300934220114695
:10144C00009B01F0E5FA422001F014FB0EB010BD38
:10145C0000940040001002401FB50368B3F1804FA8
:10146C000DD103F504339A6D42F001029A659B6D20
:10147C0003F001030093009B05B05DF804FB204AC8
:10148C00934214D11F4B9A6D42F010029A659B6DDA
:10149C00002203F01003019336201146019B01F04A
:1014AC00B7FA362005B05DF804EB01F0E3BA164A42
:1014BC00934210D1134B1A6E42F480321A661B6E93
:1014CC00002203F48033029318201146029B01F092
:1014DC009FFA1820E6E70D4A9342CDD1094B1A6EBC
:1014EC0042F400321A661B6E002203F4003303939D
:1014FC0019201146039B01F08BFA1920D2E700BF8B
:10150C000010004000100240004001400044014027
:10151C0010B5044686B01422002101A803F048FF40
:10152C002368B3F1804F15D103F5043301A9DA6CAC
:10153C0042F00102DA64DB6C03F001030093009BC0
:10154C0008220223CDE901234FF09040012305939B
:10155C0001F088FD06B010BDF0B595B0064614221A
:10156C00002102A803F024FF3422002107A803F075
:10157C001FFF3268224B9A423FD1012307A8CDE9C5
:10158C00073302F06FFD08B1FFF798FE1D4B1E4CA0
:10159C001A6E42F480421A661A6E02F4804200926D
:1015AC00009ADA6C42F00102DA64DB6C03F001039E
:1015BC000193019B02274FF4C0630025CDE902374C
:1015CC000323CDE904534FF09040072302A906935F
:1015DC0001F048FD0D4B2562C4E9003720468023FD
:1015EC00C4E90255C4E90435C4E9065501F064FAAE
:1015FC0008B1FFF763FE3467A66215B0F0BD00BFFB
:10160C000038014000100240A401002058000240A4
:10161C0002680B4B9A4210B504460FD1094A136E5F
:10162C0023F480434FF0904013664FF4C06101F0F7
:10163C00D7FD206FBDE8104001F0AABA10BD00BF65
:10164C0000380140001002407047FEE7FEE7FEE75D
:10165C00FEE770477047704700F074BA08B5194838
:10166C0001F0D0F8402101224FF0904001F032FE01
:10167C00154B16481A885B8807EE103A144BD3EDBD
:10168C00006A144BB8EE477AD3ED007AE7EE267A6F
:10169C00B2F5447F84BF6FF444715218FCEEE77AC4
:1016AC0088BF92B217EE903A98BF002299B2D3B28B
:1016BC0043EA0123084A9BB213825382BDE80840D7
:1016CC0001F018BB940000205C0000205C0100209D
:1016DC003C4E0020404E0020240E0020014801F01A
:1016EC0009BB00BFA4010020334803681B685A07DC
:1016FC0070B505D500F038FB80B2304A40B9108087
:10170C002F4800F03DFBBDE870402B4800F038BB83
:10171C002C4B1B78C0F30B00012B108048D1800898
:10172C001080138806339BB21380274A32F823109B
:10173C004FF6FF7081421CBF013122F82310234960
:10174C00098861B102EB83034FF6FF715A888A4214
:10175C001CBF01325A801E4A1368013313601D4AA4
:10176C001D4C1368013313601C4A1368013313605A
:10177C0000F0F4F922686AB119491A4E0D786B1C05
:10178C00DBB2312BA0EB02020B7046F8252084BF94
:10179C0000230B70144B20601B885B06B0D51348DC
:1017AC000122082101F096FD114802F049FEA7E73D
:1017BC00022BB6D14008B3E7F800002060000020EF
:1017CC0094000020180E0020240E0020640000203D
:1017DC008C00002088000020440D00208400002094
:1017EC00DC030020500D0020740000200004004891
:1017FC002802002008B506480022082101F06AFDE5
:10180C00044802F066FEBDE80840024802F042BE01
:10181C00000400482802002010B50B4C082120467B
:10182C0003F062F90C21204603F05EF9002202213C
:10183C004FF0904001F04EFD044802F04AFEBDE826
:10184C001040024802F026BEC002002074020020A4
:10185C0010B5384C384802F03CFE238898060AD064
:10186C00364A1288032A06D8DFE802F002062D4811
:10187C00334B00221A8010BD31490888421E92B2A7
:10188C000A8010B904230B80F5E7022AF3D9D90793
:10189C000AD508212B4803F0B5F82A480C2103F08F
:1018AC00B1F8294802F0CCFD238813F0020FE2D0E6
:1018BC004FF090400122022101F00CFDBDE81040D8
:1018CC00214802F0BDBD1E490888421E92B20A8012
:1018DC0008B90523D7E7022ACDD95A070AD508211A
:1018EC00184803F08FF817480C2103F08BF81648B2
:1018FC0002F0A6FD238813F0080FD8E710490888DA
:10190C00421E92B20A8008B90623BCE7022AB2D959
:10191C00DB060AD508210B4803F074F809480C21A2
:10192C0003F070F8084802F08BFD238813F0200FA9
:10193C00BDE700BF740000200C03002064000020F1
:10194C0062000020C002002074020020F8B52F486D
:10195C002F4D304C01F0E5FC00232B601946184646
:10196C001A4654F8046B16B101323144012301308C
:10197C003228F6D103B12960274C6AB12B68B3FB2E
:10198C00F2F3264A2B60126893422FD20323244A87
:10199C002380136801331360224E238832889A42C5
:1019AC0023D0214F00F0DAF83B7820490C225A431F
:1019BC0001EB020CC62B4FF47A7EB0FBFEF0885084
:1019CC002A68CCF8082098BF0133194A21888CF872
:1019DC00041094BFDBB200233B70137831800133C9
:1019EC00DBB2C82B88BFC8231370F8BD114A12682C
:1019FC00934201D20223CAE70F4A1268934201D2E2
:101A0C000123C4E700232380C6E700BFEC010020BC
:101A1C006C000020500D00206400002058000020B5
:101A2C006800002002000020410D0020E00300208F
:101A3C00420D002054000020500000200F49D1F826
:101A4C00883043F47003C1F888300D4B1A680020BD
:101A5C0042F001021A6098601A6822F0A85222F42F
:101A6C0010221A604FF48052DA601A6822F4802235
:101A7C001A6098614FF000638B60704700ED00E0D6
:101A8C0000100240DFF834D0FFF7D8FF002103E04C
:101A9C000B4B5B58435004310A480B4B42189A428B
:101AAC00F6D30A4A02E0002342F8043B084B9A4260
:101ABC00F9D303F059FCFEF72DFEFEE700A0002041
:101ACC00685400080000002034000020340000207E
:101ADC004C4E0020FEE7000038B50F4B0546187839
:101AEC0008B9012038BD0D4A4FF47A73B3FBF0F3FB
:101AFC001068B0FBF3F000F0CBFF04460028F0D1E7
:101B0C000F2DEED8024629464FF0FF3000F080FF33
:101B1C00034B20461D60E5E70C0000200800002068
:101B2C001000002010B5032000F060FF0020FFF72C
:101B3C00D3FF044618B9FFF7C3FB204610BD0124A0
:101B4C00FBE70000034A044B11681B780B4413603D
:101B5C00704700BF484E00200C000020014B186855
:101B6C00704700BF484E002038B50446FFF7F6FF1B
:101B7C00631C1CBF054B1B78054618BFE418FFF708
:101B8C00EDFF431BA342FAD338BD00BF0C0000206D
:101B9C0030B5CC0D04F004041430C1F304512358B7
:101BAC0007258D4023EA050302FA01F10B4323506C
:101BBC0030BD8068C0F380007047000037B500234B
:101BCC0001930446002800F0C380456D25B9FFF74A
:101BDC008FFBA56584F85050206883689B0041BF3B
:101BEC00836823F0204323F03F0383608368DD0088
:101BFC0040F18E808368D90000F1A180636D43F0C1
:101C0C0010036365A36D43F00103A3650121FFF786
:101C1C00D0FF636D03F010030343636D40F09580B8
:101C2C0023F4817343F00203206863658368DA0749
:101C3C000ED4484B9A6803F580739B681343DB07FB
:101C4C0006D4454A6568936823F47C132B43936050
:101C5C00E568636B94F820202B43A5682B43657EC5
:101C6C00012A43EA453343EA024302BF626A02F1A6
:101C7C00FF3243EA4243A26A22B1E56A02F470726F
:101C8C002A431343C568354A2A401343C360FFF700
:101C9C0090FF23689A6802F00802024320D1D868AA
:101CAC0094F83020257E520020F4804042EA8532A0
:101CBC0020F002000243DA6094F83820012A40D167
:101CCC00D4E90F25186920F4FF6020F004002A43A2
:101CDC000243606C0243A06C024342F001021A61A1
:101CEC002269012A05BF186BE2691A6B02F1FF32F7
:101CFC0006BF20F00F00024322F00F021A63636D3F
:101D0C0023F0030343F001036365084603B030BDC1
:101D1C008368134A23F0104323F03F0343F08053AE
:101D2C008360104B1B68B3FBF2F301335B00019330
:101D3C00019B002B3FF45EAF019B013BF7E70021B9
:101D4C0065E71A6922F00102C9E743F010036365E5
:101D5C000121DAE7000004500003045007C0F0FF33
:101D6C00400D0300080000200368186C7047704792
:101D7C00704708B5806AFFF7FBFF08BD70477047D6
:101D8C0003682DE9F041DFF83C821D685E68D8F8E5
:101D9C000870AB07044607F01F070ED5B0070CD52B
:101DAC00636DD9065EBF636D43F4006363652046C3
:101DBC0000F0B8FD236802221A606A0701D5730788
:101DCC0003D4280732D5310730D5636D2068DA0685
:101DDC005EBF636D43F400736365C36813F4406FB7
:101DEC001ED1764B984200F0DB80C3689B0417D45D
:101DFC000368190714D5FFF7DCFE002840F0B1800A
:101E0C002268536823F00C035360636D23F48073D2
:101E1C006365636DDA0403D4636D43F0010363659A
:101E2C002046FFF7A4FF23680C221A60AB0601D5ED
:101E3C00B00603D4690638D5720636D5636D5F4A91
:101E4C00DB065EBF636D43F4005363652368D86C97
:101E5C00D968934200F0C00004D11FB1BA1F012A07
:101E6C0000F28880DA68D0B9900105D502F40050F0
:101E7C0001F44061014312D1196848060FD5910253
:101E8C000DD49A68120778D45A6822F060025A600E
:101E9C00636D23F480536365636DD80576D5204656
:101EAC0000F03CFD236860221A6029060BD532062F
:101EBC0009D5636D43F4803363652046FFF75EFFFD
:101ECC00236880221A60EB050CD5F0050AD5636DEA
:101EDC0043F400336365204600F022FD23684FF481
:101EEC0080721A60A9050CD5B2050AD5636D43F44E
:101EFC0080236365204600F014FD23684FF40072C4
:101F0C001A60EB0618D5F00616D5636B33B1002FAB
:101F1C0041D0D8F8083013F4604F0AD0636D43F405
:101F2C0080636365A36D43F00203A3652046FFF74E
:101F3C0026FF236810221A6069053CD572053AD534
:101F4C00636D43F480436365A36D43F00803A3659D
:101F5C0023684FF4806220461A60BDE8F04100F01F
:101F6C00DEBC636D43F010036365A36D43F00103A6
:101F7C00A36555E7124AD26875E7636D43F0100309
:101F8C006365A36D43F00103A36588E7636D43F0BC
:101F9C000103636583E72368DB6813F0010FBCE77B
:101FAC00092F05D840F22123FB40DB073FF51DAF7D
:101FBC00034BDB681AE7BDE8F08100BF0001045059
:101FCC000000045000030450836A5A6D12F0500F45
:101FDC0010B55A6D21D142F400725A651A68116815
:101FEC00080716D5D16811F4406F0ED1D26812F4DF
:101FFC00005F0AD15A6D22F480725A655A6DD10471
:10200C005EBF5A6D42F001025A651846FFF7AFFEEB
:10201C0010BDD26812F0020FEBE7D20603D51846BA
:10202C00FFF7ADFEF4E7DB6CBDE810405B6B1847C7
:10203C00806A08B5436D43F040034365836D43F0FC
:10204C0004038365FFF79BFE08BD0000F7B5002372
:10205C00019390F85030012B05460C4600F0A581F9
:10206C00012380F850300068FFF7A3FD002840F0F2
:10207C0096814B68052B09D8023B032B00F2948008
:10208C00DFE803F0028B8D8F0C2363606268286895
:10209C002368910901F00C0100F1300702F01F02D6
:1020AC00CE594FF01F0CC3F3846393400CFA02F229
:1020BC0026EA02021343CB51FFF77BFD0146286849
:1020CC00826802F008020A4324D1A3682168B3F1A4
:1020DC00004F6BD1FFF75CFD2A68536943F0004356
:1020EC005361266928682268C168042E00F16003D8
:1020FC0064D0C1F3C1014800616953F82670814076
:10210C00AB4802F0F84238401043014341F0004123
:10211C0043F8261028688368D90733D4E768236806
:10212C00A44AD0F8B01007F0180CC3F3120622FA28
:10213C000CF21A4021EA06010A43C0F8B0209E4A6C
:10214C0097421FD1002E40F08E809A0E013202F081
:10215C001F0701219206092F02F0F84201FA07F13C
:10216C0000F2B3800A43002E40F099809B0E01339D
:10217C0003F01F0303EB43031B0542EA0301A268B0
:10218C00FFF706FD21688D4B194240F0B980002005
:10219C00002385F8503003B0F0BD122375E71823E7
:1021AC0073E74FF4807370E706236EE71A46FFF768
:1021BC00EFFC2A68536923F0004391E7016E016E2E
:1021CC00C2F31206C1F38461002E38D1C2F38462CB
:1021DC00914202BF026E22F0004202665A682268E7
:1021EC005968C2F31200C1F3846168BBC2F3846204
:1021FC00914202BF5A6822F000425A609A682268E3
:10220C009968C2F31200C1F3846110BBC2F38462FB
:10221C00914202BF9A6822F000429A60DA68226802
:10222C00D968C2F31200C1F38461B8B9C2F38462F5
:10223C00914202BFDA6822F00042DA606AE792FA51
:10224C00A2F2B2FA82F2C3E792FAA2F2B2FA82F2E4
:10225C00CEE792FAA2F2B2FA82F2D9E792FAA2F29D
:10226C00B2FA82F2E4E793FAA3F232B1B2FA82F252
:10227C00013202F01F02092A16D893FAA3F2B2FA1D
:10228C0082F20132920602F0F84293FAA3F1B1FA0B
:10229C0081F1013101F01F070121B94062E793FA86
:1022AC00A3F3B3FA83F362E793FAA3F2B2FA82F2DE
:1022BC000132920602F0F84293FAA3F1B1FA81F1DD
:1022CC00013101F01F070121B9400A435EB99E0E8E
:1022DC00013606F01F0606EB46011E39090541F0D2
:1022EC00007111434BE793FAA3F1B1FA81F101317B
:1022FC0001F01F036FF01D06032111FB0361EDE7D5
:10230C002F4B304A9868914200F0E0741ED10202C3
:10231C003FF53DAF29682C4A91427FF438AF9A685B
:10232C0022F0E072224342F400029A60274B284AC2
:10233C001B68B3FBF2F20C2302FB03330193019BEA
:10234C00002B3FF424AF019B013BF7E7214A91425C
:10235C0011D110F080707FF41AAF2968A2F1F74206
:10236C0091427FF414AF9A6822F0E072224342F05B
:10237C0080729A600CE7184A91427FF408AF10F40F
:10238C0080007FF404AF29680F4A91427FF4FFAEBE
:10239C009A6822F0E072224342F48002E9E76A6D07
:1023AC0042F020026A651846F2E60220F3E600BF0E
:1023BC0000F0FF03FFFF070000007F4000000880D3
:1023CC0000030450000052C7000004500800002015
:1023DC00400D0300000084CB0100008070B5044662
:1023EC000068FFF7E6FB23689A6802F008020243D4
:1023FC0001D1002070BDDA6890012BD5208B40F202
:10240C000112904226D1284A1968490616D5402255
:10241C001A6001211846FFF7CCFB58B1226893686B
:10242C009E0707D4936823F0004323F03F0343F047
:10243C001003936001290FD1042522E0013AE3D166
:10244C00636D43F010036365A36D43F00103A36553
:10245C000120CFE70229DDD12268936818070AD53D
:10246C0093689B0707D4936823F0004323F03F0342
:10247C0043F020039360022914D0032914BF0425D0
:10248C000C25FFF76BFB064623689B682B42B0D0EC
:10249C00FFF764FB801B0528F6D923689B682B4249
:1024AC00F2D0CDE70825ECE7010040A373B500237B
:1024BC00026801939368DD07044602D5002002B040
:1024CC0070BD9168204B194209D0636D43F0100325
:1024DC006365A36D43F00103A3650120EFE79368E7
:1024EC0023F0004323F03F0343F001039360174BA9
:1024FC009B68180219D4FFF731FB154E054622686C
:10250C001368DB07DAD49368D9075FBF936833404D
:10251C0043F001039360FFF721FB401B0228EED927
:10252C0023681B68DA07EAD4CFE70A4B0A4A1B6810
:10253C00B3FBF2F20C2302FB03330193019B002B40
:10254C00D9D0019B013BF8E73F0000800003045009
:10255C00C0FFFF7F08000020400D03004F4B70B5FB
:10256C00044600689E68FFF724FB0546002840F0EF
:10257C008F8094F85030012B00F08A80012384F86E
:10258C0050302046FFF792FF00287ED1636D4449FE
:10259C0023F4706323F0010343F4807363652368B1
:1025AC008B4206F01F0275D01946656D25F4801517
:1025BC006565656D15F480551CBFA56D25F0060588
:1025CC00A5651C251D60002584F850505D6825F01C
:1025DC001C055D6065695E68082D0CBF46F0080639
:1025EC0046F004065E60666B1EB95E6846F0100627
:1025FC005E608B4207D0092A28D840F2212626FAA1
:10260C0002F2D60722D5DA68910116D5626D22F452
:10261C00405242F4805262655A68082D0BBF22F07A
:10262C00200222F040025A605A600BBF5A685A6866
:10263C0042F0400242F020025A609A6822F00042B6
:10264C0022F03F0242F004029A6070BD626D42F4C7
:10265C0080126265CA689201F7D5626D22F440520D
:10266C0042F4805262655A68082D0BBF22F020029A
:10267C0022F040025A605A600BBF5A685A6842F006
:10268C00400242F020025A60DFE784F85050DCE749
:10269C000220DAE70349002A87D08AE700030450B6
:1026AC000001045000000450374B2DE9F041044662
:1026BC0000689B680E461746FFF77BFA00285DD131
:1026CC0094F85020012A59D003F01F08B8F1090FD3
:1026DC004FF0010384F850304BD840F2212020FAFF
:1026EC0008F0C04310EA030543D12046FFF7DEFE95
:1026FC0000283BD1636D216823F4706323F0010340
:10270C0043F480736365214B994239D0636D23F494
:10271C0080136365636DE06C13F480531CBFA36D71
:10272C0023F00603A3651A4BC3621A4B03631A4BBF
:10273C0043631C230B60002384F850304B6843F038
:10274C0010034B60CB6843F00103CB6032463B4631
:10275C00403100F06DFA2268936823F0004323F0B7
:10276C003F0343F004039360BDE8F08184F85050BC
:10277C00FAE7002384F850300120F5E70220F3E754
:10278C00B8F1000FC2D0C5E700030450000104509B
:10279C00D51F00087F1D00083D200008026838B5D1
:1027AC00936891680446C80701D4002038BD990786
:1027BC00FBD4936803F00D03012B19D1936823F01C
:1027CC00004323F03F0343F00203936003231360A1
:1027DC00FFF7C4F9054623689B68DB07E5D5FFF7CF
:1027EC00BDF9401B0228F6D923689B68DA07F2D59D
:1027FC00636D43F010036365A36D43F00103A365A0
:10280C000120D3E738B590F85030012B054635D070
:10281C00012380F850300321FFF7E0FD0446E0B9B6
:10282C002A68E86CD36823F00103D36090F8253054
:10283C00022B07D100F03BFA044618B16B6D43F044
:10284C0040036B652A68536823F0100353602846D5
:10285C0044B9FFF7A3FF044638B1002385F8503084
:10286C00204638BDFFF79AFFF7E76B6D23F48853CA
:10287C0023F0010343F001036B65EEE70224EFE75D
:10288C008068C0F38000704773B50023019390F803
:10289C005030012B04460D463ED0012380F85030B9
:1028AC00FFF77CFF002833D1626D266822F4885232
:1028BC0022F0020242F002026265B36823F0404348
:1028CC0023F03F0305F080452B4343F00043B360F6
:1028DC00B368002B12DA019B01330193019BB3F512
:1028EC00912FF5D3636D23F0120343F0100363654E
:1028FC00002384F85030012002B070BD636D23F0CA
:10290C00030343F001036365002384F85030F3E7BD
:10291C00636D43F01003F6E70220EDE77047704754
:10292C007047704770470000F0B590F85030012B9D
:10293C009BB0024652D0012380F850301768284CC7
:10294C000020A7421690179008D0516D82F85000C5
:10295C0041F02001516518461BB0F0BD214E3046A8
:10296C00FFF78EFF04461068FFF78AFF204330D133
:10297C001D4C0D68A36823F46043E5B1486803431C
:10298C0092F8300043EA4033A360B868B36803435D
:10299C0013F0010304D00020002382F85030DBE751
:1029AC008968A0680D4320F4716121F00F010D437B
:1029BC00A5601846F0E7A360B868B368034313F04A
:1029CC000103E8D1A16821F4716121F00F01A1602C
:1029DC00EFE7516D41F020015165EAE70220BBE7BA
:1029EC000000045000010450000304500749CA6859
:1029FC0022F4E0620302120403F4E063120C1343AA
:102A0C0043F0BF6343F40033CB60704700ED00E04C
:102A1C00164B30B5DC68C4F30224C4F10705231D42
:102A2C00042D28BF0425062B4FF0FF338CBF033C2D
:102A3C00002403FA05F521EA0501A34022EA03026A
:102A4C00A140002841EA0203ACBF00F16040084AF3
:102A5C004FEA0313B8BF00F00F00DBB2AABF00F5BA
:102A6C006140135480F8003330BD00BF00ED00E02E
:102A7C0014ED00E0002808DB0123420900F01F00E0
:102A8C0003FA00F0014B43F82200704700E100E02C
:102A9C000138B0F1807F0BD24FF0E023054A58612A
:102AAC00F02182F823100020072298611A617047E8
:102ABC000120704700ED00E030B500285BD00168C4
:102ACC002E4B99424FF0140442D82D4A0A44B2FBC3
:102ADC00F4F292004264A3F207430364022380F8E9
:102AEC002530D0E9024305690A6823432B43456925
:102AFC002B4385692B43C5692B43056A22F4FF429E
:102B0C0022F070022B431343B4F5804F0B6016D0A8
:102B1C00446C016C04F01C0244680F2393409440F5
:102B2C00184A91426FEA03031AD1D1F8A820134036
:102B3C00C1F8A830D1F8A8301C43C1F8A840002334
:102B4C000122C36380F8243080F82520184630BD5C
:102B5C000D4B0B44B3FBF4F39B0043640B4BBCE7F2
:102B6C00D2F8A8140B40C2F8A834D2F8A8341C43ED
:102B7C00C2F8A844E3E70120E9E700BF07040240DC
:102B8C00F8FFFDBF00000240F8FBFDBF000402404F
:102B9C0010B5002840D001680B6823F001030B60CE
:102BAC001E4B99424FF014042ED81D4A0A44B2FB16
:102BBC00F4F292004264A3F20743426C03640023D4
:102BCC000B6002F01C04016C0122A2404A600F222F
:102BDC00A240144CA1420CBFD1F8A840D4F8A814C0
:102BEC006FEA02020BBF22400A40C1F8A820C4F8C9
:102BFC00A824C363C0E90B33C0E90D3380F825303A
:102C0C0080F82430002010BD074B0B44B3FBF4F3C9
:102C1C009B004364054BD0E70120F4E70704024016
:102C2C00F8FFFDBF00000240F8FBFDBF00040240AE
:102C3C00F0B590F82440012C37D0012480F82440C2
:102C4C0090F82540012CE5B24FF000064FF002043D
:102C5C0029D180F825400468C663266826F0010651
:102C6C002660D0E9106707F01C07BD4075606360F3
:102C7C008368102B036B0BBFA260A160E160E26064
:102C8C004BB1236843F00E032360236843F0010328
:102C9C0023600020F0BD236823F004032360236825
:102CAC0043F00A03F0E780F824600220F2E790F882
:102CBC002530022B06D00423C363002380F8243074
:102CCC000120704703681A6822F00E021A601A6815
:102CDC0022F001021A60D0E91013012203F01C0348
:102CEC0002FA03F34B60002380F8252080F824308F
:102CFC0018467047016C426C036870B402F01C02F9
:102D0C000E681D680424944034420ED015F0040F54
:102D1C000BD01A6892065EBF1A6822F004021A6081
:102D2C00036B4C6073B370BC18470224944034425C
:102D3C0012D015F0020F0FD01A68950606D41A6837
:102D4C0022F00A021A60012380F8253000234C601F
:102D5C0080F82430C36AE5E708249440344211D04B
:102D6C002C070FD51C6824F00E041C60012303FAF9
:102D7C0002F24A60C36380F82530002380F82430C7
:102D8C00436BCFE770BC7047094A536943F4802307
:102D9C0010B55361EFF3108272B60023CC58C450B7
:102DAC000433B3F5807FF9D182F3108810BD00BFD6
:102DBC0000200240064B5A69002ABFBF054A9A60A0
:102DCC0002F188329A60BABF5869C00F0020704770
:102DDC000020024023016745034A536943F0004336
:102DEC0053610020704700BF0020024070B50546BB
:102DFC00FEF7B4FE104C06462369DB030AD42069A7
:102E0C000E4A02400FD00E494B6813434B60012011
:102E1C00226170BD6A1CEFD0FEF7A0FE801BA84299
:102E2C00EAD30320F5E7206910F00100F1D001236B
:102E3C0023611046EDE700BF00200240FAC30200F8
:102E4C00140000202DE9F843254C99462378012BDA
:102E5C0006460F46904641D001234CF25030237069
:102E6C00FFF7C4FF054630BB60601E48026812F4D1
:102E7C00806217BF0368227723F4806303601CBF52
:102E8C0002232377E6B9436943F001034361C7F892
:102E9C000080BFF36F8F0126C7F804904CF25030BE
:102EAC00FFF7A4FF054626B10E4A536923EA06062E
:102EBC00566100F03DF8002323702846BDE8F883E6
:102ECC00731E012B01D90026E8E741463846FFF76F
:102EDC005BFF022EF7D14FF48026DFE70225ECE7EB
:102EEC001400002000200240064B10F0010F1EBF02
:102EFC005A6942F004025A615A6942F480325A61AA
:102F0C00704700BF00200240084B5A69C00022F4F1
:102F1C00FC7200F4FF60104358615A6942F00202DF
:102F2C005A615A6942F480325A617047002002405B
:102F3C001548037FDAB203F0FD03012B10D1134BBC
:102F4C00196821F400711960196841F40061196065
:102F5C00196821F400611960196841F40071196055
:102F6C00931E012B0CD8094B1A6842F480521A603C
:102F7C001A6822F480521A601A6842F480621A604D
:102F8C0000230377704700BF14000020002002408C
:102F9C002DE9F843314D2B78012B064688465AD043
:102FAC0001274CF250302F70FFF720FF044610BB66
:102FBC002B4B68601A6812F4007F1A6820D05105F8
:102FCC0006D51A6822F480621A6003232B7700E07E
:102FDC002F773368012B1DD17068FFF785FF4CF2FA
:102FEC005030FFF703FF1E4A536923F004030446D5
:102FFC005361FFF79DFF00232B702046BDE8F8833B
:10300C00520505D51A6822F480621A600223DDE7A6
:10301C002877DEE74FF0FF33C8F80030B768DFF8E9
:10302C004090D6E902321344BB42E2D9716838466B
:10303C00FFF76AFF4CF25030FFF7D8FED9F8143086
:10304C0023F4FD73C9F8143018B1C8F800700446A5
:10305C00CFE70137E5E70224CFE700BF14000020DB
:10306C00002002402DE9F74FDFF87091594C0023F6
:10307C000A6832FA03F502D103B0BDE8F08F0125DE
:10308C0005FA03F818EA020200F09C804E68032748
:10309C0006F003054FEA430E07FA0EFC6F1E012FD4
:1030AC006FEA0C0C34D8876807EA0C0ACF6807FA69
:1030BC000EF747EA0A078760476827EA0808C6F34D
:1030CC0000179F4047EA08074760C76807EA0C08E3
:1030DC008F6807FA0EF747EA0807022DC76019D167
:1030EC004FEAD30800EB880803F0070AD8F82070E1
:1030FC004FEA8A0A4FF00F0B0BFA0AFB27EA0B0B6D
:10310C000F6907FA0AF747EA0B07C8F8207001E0C5
:10311C00032DDAD1076805FA0EF507EA0C072F43E1
:10312C0016F4403F07604DD0D9F8605045F00105CA
:10313C00C9F86050D9F8605023F0030707F18047B5
:10314C0005F0010507F58037019503F0030C019D8F
:10315C00BD684FEA8C0C4FF00F0E0EFA0CFEB0F15E
:10316C00904F25EA0E0E2FD01B4DA8422ED005F500
:10317C008065A8422CD005F58065A8420CBF0325BC
:10318C00072505FA0CF545EA0E05BD60A568D74381
:10319C0016F4801F0CBF3D401543A560E56816F47E
:1031AC00001F0CBF3D401543E560656816F4003FF9
:1031BC000CBF3D40154365602568F60354BF3D4088
:1031CC0015432560013353E70025DAE70125D8E7DD
:1031DC000225D6E70004014000040048001002401C
:1031EC00374A2DE9F04F00234FF0010A4FF00F083A
:1031FC004FF0030B31FA03F401D1BDE8F08F0AFA5A
:10320C0003FC1CEA010652D023F0030404F18044B1
:10321C0004F5803403F00307A568BF0008FA07F92A
:10322C00B0F1904F09EA050E43D0264DA84242D08A
:10323C0005F58065A84240D005F58065A8420CBF15
:10324C0003250725BD40754513D1156825EA0605EC
:10325C001560556825EA06055560D56825EA06050A
:10326C00D560956825EA06059560A56825EA0905E7
:10327C00A56005685C000BFA04F4DE08254300EB3E
:10328C008606056003F00705376AAD0008FA05F5F8
:10329C0027EA05053562856825EA040585604568D9
:1032AC0025EA0C054560C56825EA0404C4600133B1
:1032BC00A0E70025C6E70125C4E70225C2E700BF49
:1032CC0000040140000400480369194214BF0120A6
:1032DC00002070470AB1816170478162704700001D
:1032EC0010B50A4B44F620621B68B3FBF2F34FF4A3
:1032FC007A725343026800201468013B08BF032014
:10330C0031EA040401D0002BF6D110BD08000020D6
:10331C0070477047704770477047704770477047E9
:10332C00704703681A68D20710B5044606D59A6828
:10333C00D10703D501225A60FFF7EAFF23681A6808
:10334C00920707D59A68900704D502225A60204646
:10335C00FFF7DFFF23681A68510707D59A685207F1
:10336C0004D504225A602046FFF7D4FF23681A685C
:10337C00100707D59A68110704D508225A60204611
:10338C00FFF7C9FF23681A68D20607D59A68D006DA
:10339C0004D510225A602046FFF7BEFF23681A6836
:1033AC00910607D59A68920604D520225A602046C9
:1033BC00FFF7B3FF23681A68500607D59A685106C1
:1033CC0004D540225A602046FFF7A8FF23681A68EC
:1033DC00120607D59A68100604D580225A6020463A
:1033EC00FFF79DFF23681A68D10508D59A68D205A6
:1033FC0005D54FF480725A602046FFF791FF10BD3F
:10340C002DE9F84F0446EFF31089012383F310885C
:10341C005E4A0368934219D002F5C05293421BD006
:10342C0000255A4A9E68DF685969D3F818A0D3F86A
:10343C002080D3F828B0934214D002F5C0529342A6
:10344C007AD031BBBAF1000F37D182E0504AD2F8B2
:10345C00885005F44025E4E74D4AD2F8885005F42D
:10346C004015DEE74A4A906B40F000409063906B49
:10347C0020F00040906329B9BAF1000F02D1BBF1E2
:10348C00000F4CD0D2F8880020F44020C2F88800FD
:10349C0081B11A6942F001021A6120465961082172
:1034AC00FFF71EFF236803284FF0080208BF84F8BB
:1034BC003A005A60BAF1000F12D023681A6942F030
:1034CC0001021A611021C3F818A02046FFF708FF6B
:1034DC00236803284FF0100208BF84F83A005A60A2
:1034EC00BBF1000F13D023681A6942F001021A6174
:1034FC004FF48071C3F828B02046FFF7F1FE236823
:10350C0003284FF4807208BF84F83A005A6023688D
:10351C001E4A93422BD002F5C052934230D02368FE
:10352C001A6922F001021A619E60DF60C3F82080E4
:10353C0089F31088BDE8F88F154AD06B40F0200055
:10354C00D063D06B20F02000D06341B9BAF1000FEA
:10355C0005D1BBF1000FE2D00E4A9342C3D10C4807
:10356C00D0F8882022F44012C0F8882090E7084A4E
:10357C00D2F8883023F440231D43C2F88850CEE79C
:10358C00034AD2F8883023F44013F5E7007C00405E
:10359C000010024000940040F8B50446002867D0A3
:1035AC0090F83A3003F0FF021BB980F83920FDF790
:1035BC0023FF022384F83A3023681A6942F001028F
:1035CC001A614FF48071626B596020469A62FFF762
:1035DC0087FE032801D10320F8BD2046FFF710FF1A
:1035EC0094F83A30032BF6D065682068A66AC16857
:1035FC00012D02D0B6F5000F01D121F01E01626938
:10360C001C4F4FF6FF739A421CBF21F4604121F00E
:10361C00C0010F40A16845EA06030B43216A0B4326
:10362C00616A0B433B43E5B9E169256929430B43C7
:10363C00B6F5000F17D04FF6FF718A4204D0A1697E
:10364C000A43E1690A4313430B4AC3609042E36A9D
:10365C0004BF226B13430362012384F83A30002029
:10366C00BAE7012DE4D1D4E9031529430B43E2E772
:10367C000120B1E7FEF119FF007C0040022310B5D8
:10368C00264A80F83A300368934202F50842044611
:10369C00106A0CBF40F0010040F00200106262683A
:1036AC00012A07D0A26AB2F5000F02BFDA6822F431
:1036BC006062DA601A6942F001021A6110225A60E3
:1036CC00204699611146FFF70BFE032801D1032018
:1036DC0010BD2046FFF794FE94F83A30032BF6D039
:1036EC0023689A6842F010029A609A6842F00202CB
:1036FC009A609A6842F480729A609A6842F08002EA
:10370C009A601A6942F001021A611A6942F00402C5
:10371C001A61012384F83A300020D9E7007C00407C
:10372C000268164B9A4203F5084310B51A6A0CBF8F
:10373C0022F0010222F0020204461A62022380F8EF
:10374C003A30FFF75DFE94F83A30032BD8B214D020
:10375C0023689A6822F010029A609A6822F002029A
:10376C009A609A6822F480729A609A6822F08002B9
:10377C009A60012384F83A30002010BD007C004090
:10378C00024B186800F4C060704700BF0070004026
:10379C00174A1368B0F5007F03F4C0631DD1B3F56D
:1037AC00007F01D100207047136823F4C06343F4F9
:1037BC00007313600F4B1B6832214B430E49B3FB54
:1037CC00F1F301335169490500D523B953695B0500
:1037DC00E8D503207047013BF4E7B3F5806F1FBFBA
:1037EC00136823F4C06343F480631360DAE700BF0B
:1037FC00007000400800002040420F0037B51E4DFD
:10380C00AB6DDA00044618D5FFF7BAFFB0F5007FB0
:10381C0023D1802C29D9A02C8CBF02200120174A3F
:10382C00136823F0070303431360136803F00703C3
:10383C00181A18BF012003B030BDAB6D43F0805394
:10384C00AB65AB6D03F080530193019BFFF798FFC1
:10385C00AB6D23F08053AB65D8E7802C07D808D02C
:10386C00A4F1700358425841D9E70020D7E7032050
:10387C00D5E70220D3E700BF001002400020024031
:10388C00224B9A68D96812F00C0205D00C2A15D17B
:10389C0001F00301012918D119681D48090755BF0A
:1038AC00D3F894101968C1F30321C1F3031150F834
:1038BC0021004AB30C2A09D000207047042A22D0D8
:1038CC00082A144818BF002070470020DA6802F05C
:1038DC000302022A15D00F49032A08BF0846D968EB
:1038EC00DA68C2F306224243D868C0F34160C1F3E0
:1038FC000211013001314000B2FBF1F2B2FBF0F0E9
:10390C0070470548EBE70448704700BF00100240C1
:10391C001854000800127A000024F4002DE9F74333
:10392C00054618B9012003B0BDE8F083944C036838
:10393C00A668E768DB0606F00C0607F003073DD522
:10394C001EB10C2E6AD1012F68D12368980702D5BD
:10395C00EB69002BE6D02368686A190756BFD4F8C8
:10396C00943023681B0903F0F00398423FD9FFF70A
:10397C0045FF0028D6D1236843F008032360236851
:10398C006A6A23F0F0031343236063682A6A23F402
:10399C007F4343EA02236360FFF772FFA368794A0F
:1039AC00C3F30313D35C03F01F03D840764B1860AA
:1039BC00764B1868FEF790F80028B4D12B68D8071E
:1039CC0063D42B68990700F1A2802B68180700F1CB
:1039DC00DF802B68590700F12F812B68990600F1C5
:1039EC00AB81EB6A002B40F0D18100209BE7236870
:1039FC0043F008032360236823F0F00303432360A0
:103A0C0063682A6A23F47F4343EA02236360002E2F
:103A1C00C2D1FFF7F3FE0028BED083E7EB691BB3DE
:103A2C00236843F001032360FEF798F8804623686F
:103A3C009A0711D5236843F00803236023686A6A48
:103A4C0023F0F0031343236063682A6A23F47F4353
:103A5C0043EA02236360B1E7FEF780F8A0EB0800AD
:103A6C000228E4D903205EE7236823F001032360D6
:103A7C00FEF774F8804623689B079FD5FEF76EF817
:103A8C00A0EB08000228F6D9ECE7082E03D00C2E88
:103A9C0008D1032F06D123689A0392D56B68002BAB
:103AAC008FD13FE76B68B3F5803F10D1236843F4A7
:103ABC0080332360FEF752F8804623689B0380D442
:103ACC00FEF74CF8A0EB08006428F6D9CAE7B3F56A
:103ADC00A02F04D1236843F480232360E6E72268F7
:103AEC0022F480322260226822F480222260002B91
:103AFC00E0D1FEF733F88046236898037FF561AF79
:103B0C00FEF72CF8A0EB08006428F5D9AAE7042EE0
:103B1C0003D00C2E10D1022F0ED12368590503D5DA
:103B2C00EB68002B3FF4FEAE63682A6923F0FE437A
:103B3C0043EA0263636048E7EB687BB1236843F4B4
:103B4C0080732360FEF70AF8074623685A05EBD406
:103B5C00FEF704F8C01B0228F7D983E7236823F487
:103B6C0080732360FDF7FAFF074623685B057FF53A
:103B7C002CAFFDF7F3FFC01B0228F6D972E700BF8C
:103B8C0000100240FD530008080000201000002027
:103B9C006B69002B3CD0D4F89430A96903F0100267
:103BAC0091420ED003F00302022A3FF4BBAEDA07B7
:103BBC001BD4D4F89430AA6923F010031343C4F82F
:103BCC009430D4F8943043F00103C4F89430FDF7EA
:103BDC00C5FF0746D4F8943098073FF5FAAEFDF7C9
:103BEC00BDFFC01B1128F5D93CE7D4F8943023F065
:103BFC000103C4F89430FDF7B1FF0746D4F89430B4
:103C0C009B07D6D5FDF7AAFFC01B1128F6D929E7CB
:103C1C00D4F8943023F00103C4F89430FDF79EFFE0
:103C2C000746D4F8943099077FF5D3AEFDF796FF8D
:103C3C00C01B1128F5D915E7A36DDA0030D4A36D9C
:103C4C0043F08053A365A36D03F080530193019B54
:103C5C000127DFF87082D8F80030DB0522D5AA687E
:103C6C00D00733D4D4F8903023F00103C4F890304B
:103C7C00D4F8903023F00403C4F89030002A3CD1DF
:103C8C00FDF76CFF41F288398046D4F890309807E4
:103C9C004BD4D4F8903023F08003C4F8903035E046
:103CAC000027D6E7D8F8003043F48073C8F800300A
:103CBC00FDF754FF8146D8F80030D905CFD4FDF775
:103CCC004DFFA0EB09000228F5D9CBE6D4F89030D3
:103CDC0002F0800123F080030B43C4F89030D4F839
:103CEC009030520742BF43F00403C4F89030D4F82C
:103CFC00903043F00103C4F89030FDF72FFF41F2F0
:103D0C0088398046D4F890309B0707D5002F3FF4B4
:103D1C0064AEA36D23F08053A3655EE6FDF71EFF32
:103D2C00A0EB08004845EDD99CE6FDF717FFA0EB8A
:103D3C0008004845A9D995E6AB6A9BB1D4F89830F0
:103D4C0043F00103C4F89830FDF708FF0746D4F898
:103D5C0098309A073FF545AEFDF700FFC01B0228CF
:103D6C00F5D97FE6D4F8983023F00103C4F89830E5
:103D7C00FDF7F4FE0746D4F898309B077FF531AE7B
:103D8C00FDF7ECFEC01B0228F5D96BE6022B7AD1AD
:103D9C00E3682A6B03F0030191421CD1696B03F0B9
:103DAC0070020139B2EB011F15D1A96B03F4FE426D
:103DBC00B2EB012F0FD1EA6B520803F4C001013AA8
:103DCC00B1EB425F07D12A6C520803F0C063013A91
:103DDC00B3EB426F3ED00C2E3FF4A4AD236823F01E
:103DEC0080732360FDF7BAFE0646236898012BD436
:103DFC00E268334B13402A6B1343AA6B43EA02234A
:103E0C006A6B013A43EA0213EA6B5208013A43EA3D
:103E1C0042532A6C5208013A43EA4263E360236836
:103E2C0043F080732360E36843F08073E360FDF735
:103E3C0095FE0546236899013FF5D7ADFDF78EFE3B
:103E4C00401B0228F6D90DE6FDF788FE801B0228E0
:103E5C00CBD907E623689A013FF5C7AD236843F039
:103E6C0080732360E36843F08073E360FDF776FEB4
:103E7C00054623689B013FF5B8ADFDF76FFE401B6F
:103E8C000228F6D9EEE50C2E3FF44CAD236823F056
:103E9C0080732360FDF762FE0546236813F0007300
:103EAC0007D1E26822F0887222F00302E260184621
:103EBC0039E5FDF753FE401B0228EED9D2E500BFD1
:103ECC008C809FF9007000402DE9F0410D460446AE
:103EDC0010B90120BDE8F0814B4A136803F00703C9
:103EEC008B422CD32068860734D4C1073FD4216879
:103EFC008A0768D4444A136803F00703AB426FD8AF
:103F0C0011F0040F414D77D10B0706D5AB68226930
:103F1C0023F4605343EAC203AB60FFF7B1FCAB6818
:103F2C003B4AC3F30313BDE8F041D35C03F01F031A
:103F3C00D840384B1860384B1868FDF7CDBD136866
:103F4C0023F007030B431360136803F007038B4242
:103F5C00BFD1C7E72D4AA668916801F0F0018E42E7
:103F6C0081BF936823F0F00333439360BDE762682D
:103F7C00264E032A33681AD113F0007FA9D0B368F8
:103F8C0023F003031343B360FDF7E8FD41F28838D7
:103F9C000746B368626803F00C03B3EB820FA6D03C
:103FAC00FDF7DCFDC01B4045F3D9032092E7022A44
:103FBC0002D113F4003FE1E712B913F0020FDDE771
:103FCC0013F4806FDAE7114AA668906800F0F000ED
:103FDC0086423FBF936823F0F0033343936089E735
:103FEC00136823F007032B431360136803F00703D4
:103FFC00AB427FF46EAF83E7AB68E26823F4E06317
:10400C001343AB6080E700BF002002400010024069
:10401C00FD5300080800002010000020054B064A44
:10402C009B68C3F30223D35C044A106803F01F039C
:10403C00D8407047001002400D54000808000020C2
:10404C00054B064A9B68C3F3C223D35C044A106831
:10405C0003F01F03D8407047001002400D540008B5
:10406C00080000202DE9F3410446006810F40030EC
:10407C0039D0754DAB6DD80027D4AB6D43F0805360
:10408C00AB65AB6D03F080530193019B01266F4F21
:10409C003B6843F480733B60FDF760FD80463B68F2
:1040AC00D90514D5D5F8903013F4407303D0226B96
:1040BC00934240F0A380D5F89030226B23F44073E8
:1040CC001343C5F89030002008E00026DFE7FDF729
:1040DC0045FDA0EB08000228E1D903201EB1AB6D11
:1040EC0023F08053AB652368DF0708D55649656814
:1040FC00D1F8882022F003022A43C1F888209E07B9
:10410C0008D55149A568D1F8882022F00C022A4321
:10411C00C1F888205D0708D54B49E568D1F888209F
:10412C0022F030022A43C1F88820990608D5464966
:10413C002569D1F8882022F440622A43C1F88820EE
:10414C009A0508D54049256AD1F8882022F44022E6
:10415C002A43C1F888205F0508D53B49656AD1F828
:10416C00882022F440122A43C1F888205E0608D524
:10417C0035496569D1F8882022F440522A43C1F8A8
:10418C0088201D0608D53049A569D1F8882022F46D
:10419C0040422A43C1F88820D90508D52A49E56947
:1041AC00D1F8882022F440322A43C1F888209A049E
:1041BC000FD52549A56AD1F8882022F040622A4300
:1041CC00C1F88820B5F1006F02BFCA6842F48012B2
:1041DC00CA605B030FD51C4AE16AD2F8883023F021
:1041EC0040630B43B1F1006FC2F8883003D1D36840
:1041FC0043F48013D36002B0BDE8F081D5F8902071
:10420C00D5F8903043F48033C5F89030D5F8903021
:10421C0022F4407123F48033D207C5F89030C5F8EE
:10422C0090107FF548AFFDF799FC41F288380746AE
:10423C00D5F890309B073FF53EAFFDF78FFCC01BC8
:10424C004045F5D949E700BF00100240007000401E
:10425C00036A23F001030362036A70B54468826940
:10426C000D6822F4803222F073022A438D6823F009
:10427C0002032B43124DA84206D0124EB04203D07B
:10428C0006F58066B04214D1CE6823F008033343A0
:10429C00A84223F0040306D00A4DA84203D005F52A
:1042AC008065A84205D124F44075D1E90546344314
:1042BC002C43446082614A684263036270BD00BF54
:1042CC00002C014000400140036A23F48073036218
:1042DC00036A426870B5C4690D6824F4803424F014
:1042EC0073042C438D6823F4007343EA05230F4DAC
:1042FC00A8420ED1CD6823F4006343EA052323F4CE
:10430C008063D1E9055622F44052354342EA051246
:10431C0005E0074DA842F4D0064DA842F1D042600A
:10432C004A68C461C263036270BD00BF002C0140C7
:10433C000040014000440140036A23F480530362AF
:10434C00026A30B54468C3690D6823F0807323F4A6
:10435C00E64343EA05238D6822F4005242EA053213
:10436C000A4DA84207D005F5A055A84203D005F583
:10437C008065A84204D14D6924F4804444EA851434
:10438C004460C3614B680364026230BD002C014081
:10439C00036A23F480330362026A30B54468436DC8
:1043AC000D6823F4803323F070032B438D6822F4C3
:1043BC00003242EA05420B4DA84207D005F5A05544
:1043CC00A84203D005F58065A84204D14D6924F4B8
:1043DC00803444EA0524446043654B68836502627B
:1043EC0030BD00BF002C0140036A23F4801303622C
:1043FC00026A30B54468436D0D6823F0807323F472
:10440C00E04343EA05238D6822F4001242EA055288
:10441C000A4DA84207D005F5A055A84203D005F5D2
:10442C008065A84204D14D6924F4802444EA852493
:10443C00446043654B68C365026230BD002C01408B
:10444C0090F83D30012B1FD1022380F83D300368DA
:10445C00DA6842F00102DA600C4A934206D0B3F1FA
:10446C00804F03D002F5A052934207D19968084AB5
:10447C000A40062A06D0B2F5803F03D01A6842F0F3
:10448C0001021A600020704701207047002C014087
:10449C00070001000368DA6822F00102DA60196A89
:1044AC0041F21112114208D1196A40F244421142F0
:1044BC0002BF1A6822F001021A60012380F83D3015
:1044CC0000207047704770477047704770477047BF
:1044DC00704703681A69910710B504460FD5DA685E
:1044EC0092070CD56FF002021A61012202779B69C8
:1044FC00990700F08580FFF7E9FF002323772368F5
:10450C001A69520710D5DA6850070DD56FF00402FE
:10451C001A61022222779B6913F4407F204675D0E2
:10452C00FFF7D4FF0023237723681A6911070FD5EF
:10453C00DA6812070CD56FF008021A610422227790
:10454C00DB699B07204667D0FFF7C0FF002323776A
:10455C0023681A69D00610D5DA68D1060DD56FF02C
:10456C0010021A6108222277DB6913F4407F20467F
:10457C0058D0FFF7ABFF0023237723681A69D207C3
:10458C0008D5DA68D00705D56FF001021A6120460C
:10459C00FFF79AFF23681A69110608D5DA68120624
:1045AC0005D56FF080021A61204600F01EFB2368CF
:1045BC001A69D00508D5DA68110605D56FF4807232
:1045CC001A61204600F012FB23681A69520608D5BE
:1045DC00DA68500605D56FF040021A612046FFF7E5
:1045EC0077FF23681A69910622D5DA6892061FD5DF
:1045FC006FF0200220461A61BDE8104000F0F4BABA
:10460C00FFF763FF2046FFF762FF76E7FFF75DFFDA
:10461C002046FFF75CFF85E7FFF757FF2046FFF7C3
:10462C0056FF93E7FFF751FF2046FFF750FFA2E735
:10463C0010BD00001A4A0368904210B502D0B0F1C8
:10464C00804F09D14C6823F07003904243EA040375
:10465C0009D0B0F1804F06D0124A904203D002F537
:10466C008062904203D1CA6823F4407313434A69B1
:10467C0023F08003134303608B68C3620B6883626F
:10468C00074B984207D003F5A053984203D003F58B
:10469C008063984201D10B6903630123436110BD10
:1046AC00002C01400040014010B5044650B390F876
:1046BC003D3003F0FF021BB980F83C20FCF7CCFE28
:1046CC000223206884F83D30211DFFF7B3FF01233E
:1046DC0084F84830002084F83E3084F83F3084F869
:1046EC00403084F8413084F8423084F8433084F808
:1046FC00443084F8453084F8463084F8473084F8E8
:10470C003D3010BD0120FCE710B5044650B390F8C5
:10471C003D3003F0FF021BB980F83C20FFF7D2FEBE
:10472C000223206884F83D30211DFFF783FF01230D
:10473C0084F84830002084F83E3084F83F3084F808
:10474C00403084F8413084F8423084F8433084F8A7
:10475C00443084F8453084F8463084F8473084F887
:10476C003D3010BD0120FCE738B50D46044630B392
:10477C0090F83D3003F0FF021BB980F83C20FFF7A6
:10478C00A2FE0223206884F83D30211DFFF752FF62
:10479C0023681A6822F008021A601A682A431A6001
:1047AC00012384F84830002084F83E3084F83F30F0
:1047BC0084F8443084F8453084F83D3038BD01200D
:1047CC00FCE70000036A23F010030362036A4268EB
:1047DC0070B584690D6824F0807424F4E64444EACE
:1047EC0005248D6823F0200343EA05130E4DA842DF
:1047FC000ED1CD6823F0800343EA051323F0400368
:10480C00D1E9055622F44062354342EA850205E0BF
:10481C00064DA842F4D0064DA842F1D042604A6839
:10482C0084618263036270BD002C01400040014032
:10483C000044014038B590F83C30012B05462BD094
:10484C0001200C2A85F83C001ED008D8042A13D06D
:10485C00082A15D05AB1002385F83C3038BD102AEF
:10486C0016D0142AF7D12868FFF7BEFD02E028689D
:10487C00FFF7EEFC0020EEE72868FFF7A3FFF9E74F
:10488C002868FFF721FDF5E72868FFF755FDF1E7EC
:10489C002868FFF77DFDEDE70220DFE710B584689F
:1048AC00114324F47F4441EA03232343836010BD66
:1048BC0070B590F83C30012B04464FF0020300F029
:1048CC008F80012280F83D3080F83C200068454BF9
:1048DC0085682B4083600B68602B52D033D8402BFB
:1048EC0067D016D8202B0DD00AD833F0100109D080
:1048FC00012384F83D30002384F83C30104670BD11
:10490C00302BF5D1826822F07002134343F0070379
:10491C0017E0502BECD14A68CE68016A056A25F085
:10492C0001050562836921F00A0123F0F00343EAD3
:10493C0006130A4383610262836823F0700343F019
:10494C005703836011E0B3F5805F0ED0B3F5005FC1
:10495C000DD0702BCCD1CB68D1E90121FFF79EFF94
:10496C002268936843F0770393600022C0E7CB681A
:10497C00D1E90121FFF792FF2268936843F4804349
:10498C00F2E74D68CE68016A21F01001016282697C
:10499C00036A22F4704223F0A00343EA051342EAAF
:1049AC00063282610362836823F0700343F067036D
:1049BC00C7E74A68CE68016A056A25F001050562F9
:1049CC00836921F00A0123F0F00343EA06130A433A
:1049DC0083610262836823F0700343F04703B0E7FE
:1049EC001A468BE78800FEFF036A01F01F0110B521
:1049FC0001248C4023EA04030362036A8A401A43AD
:104A0C00026210BD10B5044629B990F83E30012B56
:104A1C0027D0012043E0042907D190F83F30012B27
:104A2C00F7D1022380F83F301EE008290DD190F811
:104A3C004030013B18BF0123002BEAD108294FF06D
:104A4C0002032DD184F840300EE00C2902D190F8ED
:104A5C004130EEE710290CBF90F8423090F843300B
:104A6C00E7E7022380F83E3020680122FFF7BCFF05
:104A7C0023681A498B4206D0194A934203D002F597
:104A8C008062934227D15A6C8B4242F400425A64A2
:104A9C0012D19968134A0A40062A14D1002010BD7D
:104AAC000C2902D184F84130DEE710290CBF84F8C0
:104ABC00423084F84330D7E7B3F1804FE9D0084A4D
:104ACC00934203D1E5E7B2F5803FE7D01A6842F094
:104ADC0001021A60E2E7B3F1804FF2E7002C0140CB
:104AEC00004001400700010038B504460022006870
:104AFC000D46FFF779FF2368214A934207D002F550
:104B0C00A052934203D002F5806293420DD1196AF0
:104B1C0041F21112114208D1196A40F24442114279
:104B2C0002BF5A6C22F400425A64196A41F2111203
:104B3C00114208D1196A40F24442114202BF1A686C
:104B4C0022F001021A6001231DB984F83E300020C6
:104B5C0038BD042D02D184F83F30F8E7082D02D17E
:104B6C0084F84030F3E70C2D02D184F84130EEE7A5
:104B7C00102D0CBF84F8423084F84330E7E700BFB7
:104B8C00002C014070B590F83C30012B4FF0020323
:104B9C0023D00268124D80F83D3053689468AA42C5
:104BAC0002BF4E6823F4700333430E6823F0700386
:104BBC003343AA42536005D0B2F1804F02D0094B67
:104BCC009A4204D1896824F080030B43936001233B
:104BDC0080F83D30002380F83C30184670BD00BF93
:104BEC00002C01400040014070477047704702683C
:104BFC0052E8003F23F4907342E800310268002928
:104C0C00F5D102F1080353E8003F23F0010302F150
:104C1C00080C4CE800310029F3D1036E012B07D1AD
:104C2C0052E8003F23F0100342E800310029F7D18D
:104C3C002023C367002303664366704738B50546D7
:104C4C00A8B12423836703681A68002422F00102A8
:104C5C001A601C605C609C60FCF7DAFCC5F8804054
:104C6C0085F87440AC672046EC672C6638BD012093
:104C7C00FCE7704770477047806A0368826FC16FAA
:104C8C0010B59C6824060ED5212A0CD10022A0F860
:104C9C00522053E8002F22F0C00243E80024002CDD
:104CAC00F7D1202282679B685B0606D5222904D1A6
:104CBC000023A0F85A30FFF79AFFD0F8803043F069
:104CCC001003C0F88030FFF7D6FF10BD7047806A24
:104CDC0008B5036E012B05D1B0F858104908FFF741
:104CEC00F5FF08BDFFF7C6FFFBE708B50346806A72
:104CFC001B681B6813F0200330D1A0F85A300268EF
:104D0C0052E8003F23F4807342E800310368002925
:104D1C00F5D103F1080252E8002F22F0010203F151
:104D2C00080C4CE800210029F3D103F1080252E8E9
:104D3C00002F22F0400203F1080C4CE8002100295E
:104D4C00F3D12022C267026E012A07D153E8002F4B
:104D5C0022F0100243E800210029F7D1036E012B49
:104D6C0004D1B0F85810FFF7B1FF08BDFFF781FF71
:104D7C00FBE7000070B5044603682169A2681D6852
:104D8C00C0690A4361690A437949024329400A43CD
:104D9C001A605A68E16822F440520A435A60754A14
:104DAC00A16993421CBF226A11439A6822F43062B3
:104DBC000A439A60704A934217D1704BD3F88830EB
:104DCC0003F00303013B022B00F2B0806C4AD35C6E
:104DDC00B0F5004F40F08B80082B22D8DFE803F0B1
:104DEC0069A98521822121216D00664A934206D151
:104DFC00624B654AD3F8883003F00C03E7E7634A4B
:104E0C00934218D15D4BD3F8883003F03003202B3C
:104E1C0000F0878007D8002B00F09480102B00F056
:104E2C008B80012024E0302BFBD1B0F5004F44D017
:104E3C004FF400408DE04F4A9342F2D14F4BD3F8E0
:104E4C00883003F44063B3F5006F15D006D85BB11E
:104E5C00B3F5806FE5D1FEF713FD07E0B3F5406FB6
:104E6C00DFD14FF4004008E0FFF7D8F828B9002054
:104E7C000023C4E9193370BD4548626802EB420354
:104E8C008342CED8B0EB023FCBD8510800258C46DC
:104E9C004FF480762946E0FB06C12B466046FBF7B3
:104EAC008FF93C4BA0F540729A42BAD82368D8606F
:104EBC00DDE7FFF7B3F80028D9D06268530803EB9D
:104ECC0040004FF6EF73B0FBF2F0A0F110029A42E3
:104EDC00A7D820F00F0322689BB2C0F342001843FE
:104EEC00D060C4E7FEF7CCFCE5E72948E5E7082BE2
:104EFC0097D801A252F823F0574F0008294F000809
:104F0C00354F00082F4E00084B4F00082F4E00085D
:104F1C002F4E00082F4E00083D4E0008FFF790F86A
:104F2C0015E0B0F5004FE0D0194812E0B0F5004F95
:104F3C00F4D1FFF785F8BEE7B0F5004FD2D0FEF7FD
:104F4C009FFC04E0B0F5004FB3D0FFF767F80028E2
:104F5C008DD0626800EB5203B3FBF2F34FF6EF72A5
:104F6C00A3F1100191423FF65CAF2268D3607EE75B
:104F7C00F369FFEF00800040003801400010024050
:104F8C0048540008004400404B54000800480040BE
:104F9C000024F400FFFC0F00436ADA0710B506D5B5
:104FAC000168846A4A6822F4003222434A609C07F2
:104FBC0006D50168C46A4A6822F4803222434A60EA
:104FCC00590706D50168046B4A6822F480222243F3
:104FDC004A601A0706D50168446B4A6822F40042FD
:104FEC0022434A60DC0606D50168846B8A6822F489
:104FFC00805222438A60990606D50168C46B8A6880
:10500C0022F4005222438A605A060FD50168046CC0
:10501C004A6822F480122243B4F5801F4A6005D1FD
:10502C004A68446C22F4C00222434A601B0606D52F
:10503C000268816C536823F400230B43536010BD4A
:10504C002DE9F041DDF8188004460E4615461F4642
:10505C002268D36936EA03030CBF01230023AB4259
:10506C0001D0002025E0B8F1FF3FF2D0FCF776FD2F
:10507C00C01B4045206802D8B8F1000F1BD150E886
:10508C00003F23F4D07340E80032002AF7D100F13E
:10509C00080353E8003F23F0010300F1080141E845
:1050AC000032002AF3D12023A367E36784F874202D
:1050BC000320BDE8F08103685A07C9D5C3691B05F5
:1050CC00C6D54FF40063036250E8003F23F4D0735D
:1050DC0040E80032002AF7D100F1080353E8003F02
:1050EC0023F0010300F1080141E80032002AF3D15A
:1050FC002023A367E367C4F88030D7E72DE9FF418D
:10510C009846836F202B04460E4617464ED1002935
:10511C004AD0002A48D090F87430012B46D0012395
:10512C0080F8743000252123C0F880508367FCF789
:10513C0015FDA268A4F85070B2F5805F0346A4F880
:10514C00527003D122690AB935461646002284F8FA
:10515C007420B4F85220CDF8008092B23AB94021B4
:10516C002046FFF76DFF50B92023A36708E000220B
:10517C00802120460393FFF763FF039B18B10320A4
:10518C0004B0BDE8F08121685EB935F8022BC2F39A
:10519C0008020A85B4F85220013A92B2A4F85220BF
:1051AC00D7E716F8012BF4E70120E9E70220E7E73F
:1051BC0030B50446002585B0C0F88050FCF7CEFC15
:1051CC00226812681107034615D422681268520728
:1051DC0009D56FF07E4200924FF4800100222046E8
:1051EC00FFF72EFFA0B920230020A36784F87400DA
:1051FC00E36720660DE06FF07E42009203902A4632
:10520C004FF400112046FFF71BFF039B0028DCD056
:10521C00032005B030BD10B5044640B3836F1BB9F5
:10522C0080F87430FCF798F922682423A36713687C
:10523C0023F0010313602046FFF79CFD012816D0D4
:10524C00636A13B12046FFF7A7FE23685A6822F45D
:10525C0090425A609A6822F02A029A601A6842F0C8
:10526C00010220461A60BDE81040FFF7A1BF0120E3
:10527C0010BD000070B522230025C0F880500446F4
:10528C004165A0F85820C367006FB8B11F4B266862
:10529C00C3621F4B03631F4BC0E90D3513460A460F
:1052AC0006F12401FDF7C4FC40B11023C4F8803092
:1052BC00202384F87450E367012070BD2269002319
:1052CC0084F8743023683AB153E8002F42F48072AA
:1052DC0043E800210029F7D103F1080252E8002F1E
:1052EC0042F0010203F1080040E800210029F3D14B
:1052FC0003F1080252E8002F42F0400203F10801CA
:10530C0041E800200028F3D1D7E700BFF74C000894
:10531C00DB4C0008854C0008C36F202B30B41FD128
:10532C00D9B1D2B190F87430012B19D0012380F887
:10533C0074300023046803660A4B9C420AD06368ED
:10534C001B0207D554E8003F43F0806344E8003566
:10535C00002DF7D130BCFFF78DBF012030BC70475A
:10536C000220FBE70080004070B50D4D0D4C641B16
:10537C00A4100026A64209D10B4D0C4C00F020F8CD
:10538C00641BA4100026A64205D170BD55F8043B41
:10539C0098470136EEE755F8043B98470136F2E79B
:1053AC0060540008605400086054000864540008FD
:1053BC0002440346934200D1704703F8011BF9E7FE
:1053CC00F8B500BFF8BC08BC9E467047F8B500BFE6
:0853DC00F8BC08BC9E467047B6
:1053E40041542B534C4545500A0041542B534C45D2
:1053F40045500D0A003C423E000000000000000041
:10540400000102030406070809000000000102036A
:1054140004000000A0860100400D0300801A06006D
:1054240000350C0040420F0080841E0000093D003E
:1054340000127A000024F40000366E010048E801EE
:10544400006CDC020402080010101004101010029A
:04545400101010081C
:08545800A4ADFF7F010000007C
:04546000B10100088E
:045464008D010008AE
:10546800010104000100000000093D0001000000E6
:105478001000000000000000000000000000000014
:105488000000000001000000000000000000000013
:045498000000000010
:0400000508001A9144
:00000001FF
